:020000040810E2
:1000000000800410C9071008D5041008DB0410088C
:10001000E1041008E7041008ED04100800000000D7
:10002000000000000000000000000000F3041008C1
:1000300001051008000000000F0510081D0510083C
:1000400019081008190810081908100819081008CC
:1000500019081008190810081908100819081008BC
:1000600019081008190810081908100819081008AC
:10007000190810081908100819081008190810089C
:10008000190810081908100819081008190810088C
:10009000190810081908100819081008190810087C
:1000A000190810081908100819081008190810086C
:1000B000190810081908100819081008190810085C
:1000C000190810081908100819081008190810084C
:1000D000190810081908100819081008190810083C
:1000E0001908100819081008000000001908100865
:1000F000190810081908100819081008190810081C
:10010000190810081908100819081008190810080B
:1001100019081008190810081908100819081008FB
:1001200019081008190810081908100819081008EB
:1001300019081008190810081908100819081008DB
:10014000190810081908100800000000000000003D
:1001500019081008190810081908100819081008BB
:1001600019081008190810081908100819081008AB
:1001700019081008190810081908100800000000D4
:10018000190810081908100819081008190810088B
:10019000190810081908100819081008190810087B
:1001A000190810081908100819081008190810086B
:1001B000190810081908100819081008190810085B
:1001C000190810081908100819081008190810084B
:1001D000190810081908100819081008190810083B
:1001E000190810081908100819081008190810082B
:1001F000190810081908100819081008190810081B
:10020000190810081908100819081008190810080A
:1002100019081008190810081908100819081008FA
:1002200019081008190810081908100819081008EA
:1002300019081008190810081908100819081008DA
:1002400019081008190810081908100819081008CA
:1002500019081008190810081908100819081008BA
:1002600019081008190810081908100819081008AA
:10027000190810081908100819081008190810089A
:1002800019081008190810081908100800000000C3
:080290001908100819081008F4
:1002980010B5054C237833B9044B13B10448AFF3B8
:1002A80000800123237010BD100000100000000022
:1002B800A837100808B5034B1BB103490348AFF32F
:1002C800008008BD0000000014000010A8371008C6
:1002D80080B400AF094BD3F88830084A43F4700360
:1002E800C2F88830054B1B69044A43F010031361B8
:1002F80000BFBD465DF8047B704700BF00ED00E01D
:1003080080B582B000AF1E4BD3F8E0301C4A43F0F2
:100318000073C2F8E0301A4BD3F8E03003F00073F2
:100328007B607B68012000F0F5FD00F0C7FF01222B
:100338000221002000F048FF124B1B681B0903F044
:100348000F03072B08D1104BD3F804310E4A43F0A2
:100358000103C2F8043107E00B4BD3F814310A4A01
:1003680043F00103C2F8143100F054FA00F014F815
:1003780000F0D6F84FF47A7000F000FBFAE700BFFF
:100388000044025800ED00E00064025880B400AF59
:1003980072B600BFFEE7000080B58AB000AF3B46EA
:1003A80028220021184603F0F3F9204B204A1A604E
:1003B8001E4B00225A601D4B7F229A601B4BFF2266
:1003C800DA601A4B00221A61184B00229A61174B07
:1003D8000022DA61154B00225A61144802F0B4FC7D
:1003E8000346002B01D0FFF7D1FF01233B60012317
:1003F800BB600023FB6000233B6100237B6100237B
:10040800BB610023FB6100233B6280237B623B4688
:100418001946064802F0B0FD0346002B01D0FFF74D
:10042800B5FF00BF2837BD4680BD00BF2C000010B7
:100438000040005880B5B4B000AF786007F10803F9
:10044800C8220021184603F0A3F97B681B68104AEC
:10045800934219D14FF480024FF00003C7E90223F9
:100468004FF40073C7F8C03007F10803184601F0CD
:10047800BDF80346002B01D0FFF788FF054B1B6F23
:10048800044A43F40043136700BFD037BD4680BD1C
:10049800004000580044025880B483B000AF0A4BB3
:1004A800D3F8F430084A43F00203C2F8F430064B9C
:1004B800D3F8F43003F002037B607B6800BF0C378D
:1004C800BD465DF8047B70470044025880B400AF15
:1004D800FEE780B400AFFEE780B400AFFEE780B46B
:1004E80000AFFEE780B400AFFEE780B400AF00BF06
:1004F800BD465DF8047B704780B400AF00BFBD46C1
:100508005DF8047B704780B400AF00BFBD465DF85E
:10051800047B704780B500AF00F010FA00BF80BDC3
:1005280080B500AF154B164A1A60144B09225A6061
:10053800124B00221A61114B0022DA600F4B012284
:100548009A610E4B0022DA610C4B00221A620B4BA7
:1005580000225A62094B0022DA62084B00221A6311
:10056800064B00225A63054800F0E6FC0346002BC0
:1005780001D0FFF70BFF00BF80BD00BF5000001087
:100588000000044080B5C2B000AF07F58473A3F53E
:100598008273186007F1F40300221A605A609A60A7
:1005A800DA601A6107F12803C8220021184603F00F
:1005B800EFF807F58473A3F582731B681B68794A03
:1005C800934240F0EA804FF480224FF00003C7E9DD
:1005D8000A234FF44013C7F8B43007F1280318462C
:1005E80001F004F80346002B01D0FFF7CFFE00F01E
:1005F80073FE6D4BD3F8E0306B4A43F00203C2F848
:10060800E030694BD3F8E03003F002037B627B6A89
:10061800654BD3F8E030644A43F48073C2F8E030A5
:10062800614BD3F8E03003F480733B623B6A5E4B66
:10063800D3F8E0305C4A43F00403C2F8E0305A4B88
:10064800D3F8E03003F00403FB61FB69564BD3F8A1
:10065800E030554A43F08003C2F8E030524BD3F8FB
:10066800E03003F08003BB61BB694F4BD3F8E03047
:100678004D4A43F00103C2F8E0304B4BD3F8E03069
:1006880003F001037B617B6943F62343C7F8F43029
:100698000223C7F8F8300023C7F8FC300223C7F854
:1006A80000310A23C7F8043107F1F40319463F481B
:1006B80000F080FA4FF40063C7F8F4300223C7F85B
:1006C800F8300023C7F8FC300223C7F800310A23AA
:1006D800C7F8043107F1F4031946354800F06AFAFF
:1006E8000123C7F8F4300223C7F8F8300023C7F80D
:1006F800FC300223C7F800310A23C7F8043107F198
:10070800F40319462B4800F055FA1023C7F8F430C3
:100718000223C7F8F8300023C7F8FC300223C7F8D3
:1007280000310A23C7F8043107F1F40319462248B7
:1007380000F040FA2823C7F8F4300223C7F8F8304D
:100748000023C7F8FC300223C7F800310A23C7F892
:10075800043107F1F4031946184800F02BFA124B3C
:10076800D3F8D830104A43F00073C2F8D8300E4B93
:10077800D3F8D83003F000733B613B690A4BD3F8D8
:10078800D830094A43F08063C2F8D830064BD3F812
:10079800D83003F08063FB60FB6800BF07F58477FF
:1007A800BD4680BD000004400044025800040258C1
:1007B8000020025800080258001C02580000025885
:1007C800DFF834D0FFF784FD0C480D490D4A0023AB
:1007D80002E0D458C4500433C4188C42F9D30A4AEE
:1007E8000A4C002301E013600432A242FBD302F05A
:1007F800ABFFFFF785FD7047008004100000001074
:1008080010000010D8371008100000106005001004
:10081800FEE7000080B582B000AF284BD3F8D8308F
:10082800264A43F48043C2F8D830244BD3F8D83052
:1008380003F480433B603B68214B1B6823F47F2310
:1008480023F470631E4A43F4014313601C4B1B6876
:100858001B4A43F001031360032000F065F900F020
:100868004BFD0246154B9B691B0A03F00F03154904
:10087800CB5C03F01F0322FA03F37B600F4B9B69E9
:1008880003F00F030F4AD35C03F01F037A6822FAC0
:1008980003F30D4A13600C4B1B680C4A13600020CD
:1008A80000F016F80346002B01D0012302E0FFF701
:1008B800F3FD002318460837BD4680BD00440258A2
:1008C80000440240C0371008040000100000001067
:1008D80080B582B000AF7860154B1B78002B01D132
:1008E800012321E0134B1A68114B1B7819464FF46A
:1008F8007A73B3FBF1F3B2FBF3F3184600F039F95E
:100908000346002B01D001230EE07B680F2B0AD889
:10091800002279684FF0FF3000F011F9064A7B6831
:100928001360002300E0012318460837BD4680BD48
:100938000C000010000000100800001080B400AF88
:10094800064B1B781A46064B1B681344044A13606F
:1009580000BFBD465DF8047B704700BF0C00001067
:100968005C05001080B400AF034B1B681846BD46F9
:100978005DF8047B704700BF5C05001080B584B04B
:1009880000AF7860FFF7EEFFB8607B68FB60FB683C
:10099800B3F1FF3F05D00A4B1B781A46FB68134496
:1009A800FB6000BFFFF7DEFF0246BB68D31AFA6898
:1009B8009A42F7D800BF00BF1037BD4680BD00BFC0
:1009C8000C00001080B485B000AF78607B6803F03D
:1009D8000703FB600C4BDB68BB60BA684FF6FF038C
:1009E8001340BB60FB681A02BB68134343F0BF6344
:1009F80043F40033BB60044ABB68D36000BF1437BC
:100A0800BD465DF8047B704700ED00E080B400AFA0
:100A1800044BDB681B0A03F007031846BD465DF864
:100A2800047B704700ED00E080B483B000AF03465C
:100A38003960FB80B7F90630002B0ADB3B68DAB275
:100A48000C49B7F906301201D2B20B4483F80023DF
:100A58000AE03B68DAB20849FB8803F00F03043B5D
:100A68001201D2B20B441A7600BF0C37BD465DF8AE
:100A7800047B704700E100E000ED00E080B489B03D
:100A880000AFF860B9607A60FB6803F00703FB61A8
:100A9800FB69C3F10703042B28BF0423BB61FB696F
:100AA8000433062B02D9FB69033B00E000237B617A
:100AB8004FF0FF32BB6902FA03F3DA43BB681A400E
:100AC8007B699A404FF0FF317B6901FA03F3D94300
:100AD8007B680B40134318462437BD465DF8047BFA
:100AE8007047000080B582B000AF78607B68013B3A
:100AF800B3F1807F01D301230FE00A4A7B68013BF1
:100B080053600F214FF0FF30FFF78EFF054B002297
:100B18009A60044B07221A60002318460837BD461E
:100B280080BD00BF10E000E080B582B000AF786003
:100B38007868FFF747FF00BF0837BD4680BD80B51E
:100B480086B000AF0346B9607A60FB81FFF75EFFAD
:100B580078617A68B9687869FFF790FF0246B7F953
:100B68000E3011461846FFF75FFF00BF1837BD4625
:100B780080BD80B582B000AF78607868FFF7B2FFBB
:100B8800034618460837BD4680BD000080B400AF54
:100B9800074B1B681B0903F00F03072B01D1032325
:100BA80000E001231846BD465DF8047B704700BF8E
:100BB80000ED00E080B489B000AF786039600023B0
:100BC800FB61894B7B6194E13B681A680121FB69F1
:100BD80001FA03F313403B613B69002B00F0868167
:100BE8003B685B6803F00303012B05D03B685B6837
:100BF80003F00303022B30D17B689B68BB61FB6960
:100C08005B00032202FA03F3DB43BA691340BB61BA
:100C18003B68DA68FB695B0002FA03F3BA691343BD
:100C2800BB617B68BA699A607B685B68BB610122BB
:100C3800FB6902FA03F3DB43BA691340BB613B6803
:100C48005B681B0903F00102FB6902FA03F3BA6946
:100C58001343BB617B68BA695A603B685B6803F001
:100C68000303032B17D07B68DB68BB61FB695B0060
:100C7800032202FA03F3DB43BA691340BB613B6802
:100C88009A68FB695B0002FA03F3BA691343BB6114
:100C98007B68BA69DA603B685B6803F00303022B80
:100CA80023D1FB69DA087B68083253F82230BB612C
:100CB800FB6903F007039B000F2202FA03F3DB43EF
:100CC800BA691340BB613B681A69FB6903F0070303
:100CD8009B0002FA03F3BA691343BB61FB69DA08A4
:100CE8007B680832B96943F822107B681B68BB61CE
:100CF800FB695B00032202FA03F3DB43BA69134082
:100D0800BB613B685B6803F00302FB695B0002FAA6
:100D180003F3BA691343BB617B68BA691A603B681D
:100D28005B6803F44033002B00F0E0802F4BD3F8CE
:100D3800F4302E4A43F00203C2F8F4302B4BD3F8B8
:100D4800F43003F00203FB60FB68294AFB699B0847
:100D5800023352F82330BB61FB6903F003039B00A5
:100D68000F2202FA03F3DB43BA691340BB617B68C5
:100D7800204A934252D07B681F4A934231D07B6805
:100D88001E4A93422BD07B681D4A934225D07B682C
:100D98001C4A93421FD07B681B4A934219D07B6838
:100DA8001A4A934213D07B68194A93420DD07B6844
:100DB800184A934207D07B68174A934201D1092306
:100DC8002DE00A232BE0082329E0072327E0062348
:100DD80025E0052323E0042321E003231FE0022369
:100DE8001DE001231BE000BFC0000058004402586A
:100DF8000004005800000258000402580008025875
:100E0800000C02580010025800140258001802582A
:100E1800001C025800200258002402580023FA69D6
:100E280002F0030292009340BA691343BB61384948
:100E3800FB699B080233BA6941F823204FF0B0439D
:100E48001B68BB613B69DB43BA691340BB613B6804
:100E58005B6803F48013002B03D0BA693B69134322
:100E6800BB614FF0B042BB6913604FF0B0435B68A1
:100E7800BB613B69DB43BA691340BB613B685B6894
:100E880003F40013002B03D0BA693B691343BB6119
:100E98004FF0B042BB6953607B695B68BB613B69DB
:100EA800DB43BA691340BB613B685B6803F40033FA
:100EB800002B03D0BA693B691343BB617B69BA69EC
:100EC8005A607B691B68BB613B69DB43BA691340A5
:100ED800BB613B685B6803F48033002B03D0BA69BD
:100EE8003B691343BB617B69BA691A60FB690133CB
:100EF800FB613B681A68FB6922FA03F3002B7FF455
:100F080063AE00BF00BF2437BD465DF8047B704761
:100F18000004005880B483B000AF7860054B1A68AD
:100F280004497B6813430B6000BF0C37BD465DF86E
:100F3800047B704710650258F0B58FB00AAF78602F
:100F48007B68002B01D1012316E17B681B68BB601D
:100F58007B6893F8BD34DBB2002B06D17B68002296
:100F680083F8BC247868FFF70DFB7B68032283F8BD
:100F7800BD24BB68DB6B03F48073002B02D17B6854
:100F88000022DA607B681B68184602F042F97B6829
:100F98001B683B607E686D4606F110040FCC0FC5D8
:100FA8000FCC0FC594E8030085E80300331D0ECB72
:100FB800386802F0C0F80346002B05D07B6802228F
:100FC80083F8BD240123D7E07B681B6800211846FD
:100FD80002F030F90023FB734AE0FA7B7968134684
:100FE800DB0013449B000B443D3301221A70FA7B4B
:100FF80079681346DB0013449B000B443C33FA7BAF
:101008001A70FA7BFB7B98B279681346DB001344AD
:101018009B000B44563302461A80FA7B79681346C4
:10102800DB0013449B000B44403300221A70FA7B08
:1010380079681346DB0013449B000B4444330022B9
:101048001A60FA7B79681346DB0013449B000B4453
:10105800483300221A60FA7B79681346DB00134490
:101068009B000B444C3300221A60FB7B0133FB735B
:10107800FA7B7B685B689A42AFD30023FB7344E03A
:10108800FA7B79681346DB0013449B000B4403F298
:101098007D2300221A70FA7B79681346DB0013441B
:1010A8009B000B4403F51F73FA7B1A70FA7B79686F
:1010B8001346DB0013449B000B4403F52073002206
:1010C8001A70FA7B79681346DB0013449B000B44C3
:1010D80003F5217300221A60FA7B79681346DB0056
:1010E80013449B000B4403F5227300221A60FA7B19
:1010F80079681346DB0013449B000B4403F5237304
:1011080000221A60FB7B0133FB73FA7B7B685B6808
:101118009A42B5D37B681B683B607E686D4606F1D2
:1011280010040FCC0FC50FCC0FC594E8030085E859
:101138000300331D0ECB386802F0C8F80346002BB5
:1011480005D07B68022283F8BD24012314E07B6864
:10115800002283F838207B68012283F8BD247B684D
:101168005B6A012B02D1786800F00AF87B681B687B
:10117800184602F086FA002318461437BD46F0BD1B
:1011880080B485B000AF78607B681B68FB607B68C3
:101198000122C3F800257B68002283F8F424FB6849
:1011A8009B6943F00062FB689A61FB685B6D43F0E2
:1011B800805343F00303FA68536500231846143735
:1011C800BD465DF8047B704780B584B000AFF86019
:1011D8000B467A60FB72374B1B6823F001023549D6
:1011E800FB6813430B607B68002B23D1FFF7CEFC11
:1011F8000346032B58D12F4B1B692E4A23F00103BA
:1012080013612D4B1B692C4A43F004031361BFF390
:101218004F8F00BFBFF36F8F00BFFB7A012B01D147
:1012280030BF00E020BF244B1B69234A23F004038E
:1012380013613CE07B68012B23D1FFF7A7FC034631
:10124800012B33D11B4B5B691A4A23F0020353610C
:10125800194B1B69184A43F004031361BFF34F8FFE
:1012680000BFBFF36F8F00BFFB7A012B01D130BFE6
:1012780000E020BF104B1B690F4A23F004031361E1
:1012880015E0FFF783FC0346032B06D1094B1B69C6
:10129800084A23F00403136109E0064B5B69054A19
:1012A80023F00403536102E000BF00E000BF1037E1
:1012B800BD4680BD0048025800ED00E080B500AF93
:1012C800FFF764FC0346032B01D120BF01E040BFB8
:1012D80020BF00BF80BD000080B400AF054BDB68B5
:1012E800044A43F08073D36000BFBD465DF8047BB9
:1012F800704700BF0048025880B489B000AFB34BB4
:101308001B6903F03803182B00F2558101A252F82B
:1013180023F000BF81131008BF151008BF1510086F
:10132800BF151008BF151008BF151008BF15100805
:10133800BF151008A7131008BF151008BF1510080F
:10134800BF151008BF151008BF151008BF151008E5
:10135800BF151008AD131008BF151008BF151008E9
:10136800BF151008BF151008BF151008BF151008C5
:10137800BF151008B3131008944B1B6803F0200323
:10138800002B09D0914B1B68DB0803F00303904A3C
:1013980022FA03F3BB6111E18D4BBB610EE18D4B6A
:1013A800BB610BE18C4BBB6108E1884B9B6A03F086
:1013B80003037B61854B9B6A1B0903F03F033B6179
:1013C800824BDB6A03F00103FB60804B5B6BDB083D
:1013D800C3F30C03FA6802FB03F307EE903AF8EE46
:1013E800677AC7ED027A3B69002B00F0E1807B69E0
:1013F800022B00F083807B69022B00F2A1807B69BD
:10140800002B03D07B69012B56D099E06F4B1B68EA
:1014180003F02003002B2DD06C4B1B68DB0803F076
:1014280003036B4A22FA03F37B607B6807EE903A6A
:10143800F8EE676A3B6907EE903AF8EE677A86EE4F
:10144800A77A624B1B6BC3F3080307EE903AF8EEDA
:10145800676A97ED026ADFED615AC6EE257A76EE85
:10146800A77AF7EE006A77EEA67A67EE277AC7EDD5
:10147800077A87E03B6907EE903AF8EE677ADFED86
:10148800586A86EEA77A514B1B6BC3F3080307EE25
:10149800903AF8EE676A97ED026ADFED505AC6EEA9
:1014A800257A76EEA77AF7EE006A77EEA67A67EEE7
:1014B800277AC7ED077A65E03B6907EE903AF8EEC0
:1014C800677ADFED486A86EEA77A404B1B6BC3F359
:1014D800080307EE903AF8EE676A97ED026ADFEDC7
:1014E8003F5AC6EE257A76EEA77AF7EE006A77EECF
:1014F800A67A67EE277AC7ED077A43E03B6907EEDD
:10150800903AF8EE677ADFED386A86EEA77A2F4BC5
:101518001B6BC3F3080307EE903AF8EE676A97ED82
:10152800026ADFED2E5AC6EE257A76EEA77AF7EE36
:10153800006A77EEA67A67EE277AC7ED077A21E088
:101548003B6907EE903AF8EE677ADFED266A86EE99
:10155800A77A1E4B1B6BC3F3080307EE903AF8EE0D
:10156800676A97ED026ADFED1D5AC6EE257A76EEB8
:10157800A77AF7EE006A77EEA67A67EE277AC7EDC4
:10158800077A00BF114B1B6B5B0A03F07F03013323
:101598003B603B6807EE903AB8EE677AD7ED076A8A
:1015A800C6EE877AFCEEE77A17EE903ABB6105E063
:1015B8000023BB6102E0074BBB6100BFBB69184653
:1015C8002437BD465DF8047B704700BF00440258CD
:1015D8000090D00300093D0040787D0100000046DE
:1015E8000024744C0024744A20BCBE4B2DE9B04F33
:1015F800CCB000AFC7F81C01002387F82F310023B7
:1016080087F82E31D7F81C31D3E9002302F00064A3
:10161800002554EA050349D0D7F81C31DB6EB3F531
:10162800401F2FD0B3F5401F28D8B3F5001F1AD09C
:10163800B3F5001F22D8002B03D0B3F5801F07D0C5
:101648001CE0B84BDB6AB74A43F40033D3621AE0B4
:10165800D7F81C3108330221184601F011FA034665
:1016680087F82F310FE0D7F81C31283302211846AC
:1016780001F0B8FA034687F82F3104E0012387F810
:101688002F3100E000BF97F82F31002B0AD1A54B6E
:101698001B6D23F44011D7F81C31DB6EA14A0B43B4
:1016A800136503E097F82F3187F82E31D7F81C31EE
:1016B800D3E9002302F480784FF0000958EA0903BF
:1016C80047D0D7F81C31DB6D042B2AD801A252F879
:1016D80023F000BFF1161008FF16100815171008A0
:1016E80033171008331710088E4BDB6A8D4A43F402
:1016F8000033D3621AE0D7F81C31083300211846AA
:1017080001F0BEF9034687F82F310FE0D7F81C31F6
:1017180028330021184601F065FA034687F82F316F
:1017280004E0012387F82F3100E000BF97F82F313C
:10173800002B0AD17B4B1B6D23F00701D7F81C3116
:10174800DB6D784A0B43136503E097F82F3187F870
:101758002E31D7F81C31D3E9002302F4007A4FF078
:10176800000B5AEA0B034CD0D7F81C311B6EB3F5AB
:10177800807F30D0B3F5807F29D8C02B2DD0C02BE7
:1017880025D8802B18D0802B21D8002B02D0402BB5
:1017980007D01CE0634BDB6A624A43F40033D36230
:1017A8001CE0D7F81C3108330021184601F068F90D
:1017B800034687F82F3111E0D7F81C312833002170
:1017C800184601F00FFA034687F82F3106E0012387
:1017D80087F82F3102E000BF00E000BF97F82F31F3
:1017E800002B0AD14F4B1B6D23F4E071D7F81C3145
:1017F8001B6E4C4A0B43136503E097F82F3187F8AB
:101808002E31D7F81C31D3E9002302F48063C7F8DE
:1018180010310023C7F81431D7E944120B4613439B
:1018280053D0D7F81C31D3F8AC30B3F5000F35D00E
:10183800B3F5000F2ED8B3F5C00F31D0B3F5C00FF4
:1018480028D8B3F5800F1AD0B3F5800F22D8002B13
:1018580003D0B3F5001F07D01CE0324BDB6A314AD6
:1018680043F40033D3621CE0D7F81C31083300215D
:10187800184601F005F9034687F82F3111E0D7F82B
:101888001C3128330021184601F0ACF9034687F8CB
:101898002F3106E0012387F82F3102E000BF00E076
:1018A80000BF97F82F31002B0BD11E4B9B6D23F4F3
:1018B8006001D7F81C31D3F8AC301A4A0B43936552
:1018C80003E097F82F3187F82E31D7F81C31D3E988
:1018D800002302F40063C7F808310023C7F80C316D
:1018E800D7E942120B46134356D0D7F81C31D3F828
:1018F800B030B3F1806F38D0B3F1806F31D8B3F125
:10190800407F34D0B3F1407F2BD8B3F1007F1DD096
:10191800B3F1007F25D8002B06D0B3F1807F0AD021
:101928001FE000BF00440258A24BDB6AA14A43F4FF
:101938000033D3621CE0D7F81C3108330021184665
:1019480001F09EF8034687F82F3111E0D7F81C31D3
:1019580028330021184601F045F9034687F82F314E
:1019680006E0012387F82F3102E000BF00E000BF46
:1019780097F82F31002B0BD18E4B9B6D23F0E06134
:10198800D7F81C31D3F8B0308A4A0B43936503E08B
:1019980097F82F3187F82E31D7F81C31D3E9002377
:1019A80002F00073C7F800310023C7F80431D7E903
:1019B80040120B4613433AD0D7F81C31DB6C302B5E
:1019C8001FD0302B19D8202B0CD0202B15D8002B4A
:1019D80019D0102B11D1774BDB6A764A43F40033C8
:1019E800D36211E0D7F81C3108330221184601F000
:1019F80047F8034687F82F3106E0012387F82F318F
:101A080002E000BF00E000BF97F82F31002B0AD199
:101A1800684BDB6C23F03001D7F81C31DB6C654A6E
:101A28000B43D36403E097F82F3187F82E31D7F8AA
:101A38001C31D3E9002302F48053C7F8F83000239F
:101A4800C7F8FC30D7E93E120B46134351D0D7F8FC
:101A58001C315B6EB3F5804F35D0B3F5804F2ED86F
:101A6800B3F5405F31D0B3F5405F28D8B3F5005FD8
:101A78001AD0B3F5005F22D8002B03D0B3F5805FEE
:101A880007D01CE04B4BDB6A4A4A43F40033D3626D
:101A98001CE0D7F81C3108330021184600F0F0FF8D
:101AA800034687F82F3111E0D7F81C31283300217D
:101AB800184601F097F8034687F82F3106E001230E
:101AC80087F82F3102E000BF00E000BF97F82F3100
:101AD800002B0AD1374B1B6D23F4E041D7F81C319A
:101AE8005B6E344A0B43136503E097F82F3187F890
:101AF8002E31D7F81C31D3E9002302F40053C7F87C
:101B0800F0300023C7F8F430D7E93C120B461343F2
:101B180056D0D7F81C319B6EB3F5A02F33D0B3F550
:101B2800A02F2CD8B3F5802F2FD0B3F5802F26D82F
:101B3800B3F5403F2BD0B3F5403F20D8B3F5003F75
:101B480012D0B3F5003F1AD8002B22D0B3F5803F4E
:101B580015D1D7F81C3108330121184600F090FF41
:101B6800034687F82F3115E0D7F81C3128330121B7
:101B7800184601F037F8034687F82F310AE00123A9
:101B880087F82F3106E000BF04E000BF02E000BF85
:101B980000E000BF97F82F31002B0DD1054B1B6DCE
:101BA80023F4E021D7F81C319B6E024A0B431365DE
:101BB80006E000BF0044025897F82F3187F82E310D
:101BC800D7F81C31D3E9002302F48043C7F8E83082
:101BD8000023C7F8EC30D7E93A120B46134355D027
:101BE800D7F81C31D3F8B430B3F1A04F33D0B3F1E8
:101BF800A04F2CD8B3F1804F2FD0B3F1804F26D807
:101C0800B3F1405F2BD0B3F1405F20D8B3F1005F50
:101C180012D0B3F1005F1AD8002B22D0B3F1805F45
:101C280015D1D7F81C3108330121184600F028FFD8
:101C3800034687F82F3115E0D7F81C3128330121E6
:101C4800184600F0CFFF034687F82F310AE001233A
:101C580087F82F3106E000BF04E000BF02E000BFB4
:101C680000E000BF97F82F31002B0BD1B74B9B6DCD
:101C780023F0E041D7F81C31D3F8B430B34A0B4312
:101C8800936503E097F82F3187F82E31D7F81C3188
:101C9800D3E9002302F08063C7F8E0300023C7F8D7
:101CA800E430D7E938120B4613432AD0D7F81C3151
:101CB8001B6D002B11D0B3F5807F0AD1D7F81C31EA
:101CC80008330121184600F0DBFE034687F82F3160
:101CD80004E0012387F82F3100E000BF97F82F3187
:101CE800002B0AD1994BDB6C23F48071D7F81C3197
:101CF8001B6D964A0B43D36403E097F82F3187F89E
:101D08002E31D7F81C31D3E9002302F40043C7F879
:101D1800D8300023C7F8DC30D7E936120B46134316
:101D280037D0D7F81C315B6FB3F1005F0ED0B3F139
:101D3800005F16D8002B18D0B3F1805F11D1834B08
:101D4800DB6A824A43F40033D3620FE0D7F81C31D0
:101D580008330121184600F093FE034687F82F3117
:101D680004E0012387F82F3100E000BF97F82F31F6
:101D7800002B0AD1754B1B6D23F04051D7F81C314D
:101D88005B6F724A0B43136503E097F82F3187F8AE
:101D98002E31D7F81C31D3E9002302F08073C7F83D
:101DA800D0300023C7F8D430D7E934120B46134398
:101DB8003AD0D7F81C319B6C032B1DD801A252F8DE
:101DC80023F000BF091E1008DD1D1008EB1D1008C8
:101DD800091E10085D4BDB6A5C4A43F40033D3628A
:101DE8000FE0D7F81C3108330221184600F048FEEE
:101DF800034687F82F3104E0012387F82F3100E0EC
:101E080000BF97F82F31002B0AD1504BDB6C23F021
:101E18000301D7F81C319B6C4C4A0B43D36403E095
:101E280097F82F3187F82E31D7F81C31D3E90023E2
:101E380002F48003C7F8C8300023C7F8CC30D7E9CC
:101E480032120B46134300F0A080414B1B68404AF6
:101E580043F480731360FEF785FDC7F828010BE093
:101E6800FEF780FD0246D7F82831D31A642B03D930
:101E7800032387F82F3105E0354B1B6803F4807383
:101E8800002BEDD097F82F31002B7AD12F4B1A6FFA
:101E9800D7F81C31D3F8B830534003F44073002B03
:101EA80015D02A4B1B6F23F44073C7F82431274BF6
:101EB8001B6F264A43F480331367244B1B6F234A56
:101EC80023F480331367214AD7F824311367D7F8EE
:101ED8001C31D3F8B830B3F5807F18D1FEF742FD36
:101EE800C7F828010DE0FEF73DFD0246D7F8283176
:101EF800D21A41F288339A4203D9032387F82F3143
:101F080005E0124B1B6F03F00203002BEBD097F890
:101F18002F31002B30D1D7F81C31D3F8B83003F467
:101F28004073B3F5407F15D1084B1B6923F47C51EE
:101F3800D7F81C31D3F8B8301B0923F07F4323F0BE
:101F48003003024A0B4313610AE000BF0044025801
:101F580000480258D44B1B69D34A23F47C531361BD
:101F6800D14B196FD7F81C31D3F8B830C3F30B0332
:101F7800CD4A0B43136708E097F82F3187F82E31C5
:101F880003E097F82F3187F82E31D7F81C31D3E9C1
:101F9800002302F00103C7F8C0300023C7F8C4309B
:101FA800D7E930120B46134300F08B80D7F81C3169
:101FB800D3F88030282B6BD801A252F823F000BF49
:101FC800A1201008992010089920100899201008BD
:101FD80099201008992010089920100899201008B5
:101FE8006D201008992010089920100899201008D1
:101FF8009920100899201008992010089920100895
:10200800832010089920100899201008992010089A
:102018009920100899201008992010089920100874
:10202800A12010089920100899201008992010085C
:102038009920100899201008992010089920100854
:10204800A12010089920100899201008992010083C
:102058009920100899201008992010089920100834
:10206800A1201008D7F81C3108330121184600F0C8
:1020780007FD034687F82F310FE0D7F81C312833C6
:102088000121184600F0AEFD034687F82F3104E021
:10209800012387F82F3100E000BF97F82F31002B7C
:1020A8000BD1814B5B6D23F03801D7F81C31D3F885
:1020B80080307D4A0B43536503E097F82F3187F84A
:1020C8002E31D7F81C31D3E9002302F00203C7F8F8
:1020D800B8300023C7F8BC30D7E92E120B4613439B
:1020E80042D0D7F81C31DB6F052B25D801A252F856
:1020F80023F000BF49211008152110082B211008D2
:10210800492110084921100849211008D7F81C3125
:1021180008330121184600F0B3FC034687F82F3135
:102128000FE0D7F81C3128330121184600F05AFD7A
:10213800034687F82F3104E0012387F82F3100E0A8
:1021480000BF97F82F31002B0AD1574B5B6D23F056
:102158000701D7F81C31DB6F534A0B43536503E083
:1021680097F82F3187F82E31D7F81C31D3E900239F
:1021780002F00403C7F8B0300023C7F8B430D7E939
:102188002C120B46134344D0D7F81C31D3F898309F
:10219800052B25D801A252F823F000BFF121100821
:1021A800BD211008D3211008F1211008F1211008D1
:1021B800F1211008D7F81C3108330121184600F026
:1021C8005FFC034687F82F310FE0D7F81C3128331E
:1021D8000121184600F006FD034687F82F3104E078
:1021E800012387F82F3100E000BF97F82F31002B2B
:1021F8000BD12D4B9B6D23F00701D7F81C31D3F879
:102208009830294A0B43936503E097F82F3187F8F4
:102218002E31D7F81C31D3E9002302F02003C7F888
:10222800A8300023C7F8AC30D7E92A120B4613436D
:1022380057D0D7F81C31D3F89430B3F1A04F35D02C
:10224800B3F1A04F2CD8B3F1804F31D0B3F1804F08
:1022580026D8B3F1405F2DD0B3F1405F20D8B3F159
:10226800005F12D0B3F1005F1AD8002B24D0B3F16D
:10227800805F15D1D7F81C3108330021184600F0CB
:10228800FFFB034687F82F3117E0D7F81C312833B6
:102298000221184600F0A6FC034687F82F310CE00F
:1022A800012387F82F3108E00044025800BF04E0FA
:1022B80000BF02E000BF00E000BF97F82F31002BFD
:1022C8000BD1C24B5B6D23F0E041D7F81C31D3F83A
:1022D8009430BE4A0B43536503E097F82F3187F8D3
:1022E8002E31D7F81C31D3E9002302F04003C7F898
:1022F800A0300023C7F8A430D7E928120B461343AF
:1023080055D0D7F81C31D3F8A030B3F5A05F33D03F
:10231800B3F5A05F2CD8B3F5805F2FD0B3F5805FFD
:1023280026D8B3F5406F2BD0B3F5406F20D8B3F55E
:10233800006F12D0B3F5006F1AD8002B22D0B3F576
:10234800806F15D1D7F81C3108330021184600F0EA
:1023580097FB034687F82F3115E0D7F81C3128334F
:102368000221184600F03EFC034687F82F310AE0A8
:10237800012387F82F3106E000BF04E000BF02E028
:1023880000BF00E000BF97F82F31002B0BD18F4B17
:102398009B6D23F4E051D7F81C31D3F8A0308B4A59
:1023A8000B43936503E097F82F3187F82E31D7F860
:1023B8001C31D3E9002302F08003C7F898300023CA
:1023C800C7F89C30D7E926120B46134355D0D7F8E7
:1023D8001C31D3F8A430B3F5204F33D0B3F5204FD8
:1023E8002CD8B3F5004F2FD0B3F5004F26D8B3F54E
:1023F800C04F2BD0B3F5C04F20D8B3F5804F12D0C3
:10240800B3F5804F1AD8002B22D0B3F5005F15D151
:10241800D7F81C3108330021184600F031FB034679
:1024280087F82F3115E0D7F81C31283302211846D8
:1024380000F0D8FB034687F82F310AE0012387F81C
:102448002F3106E000BF04E000BF02E000BF00E05B
:1024580000BF97F82F31002B0BD15C4B9B6D23F4F9
:102468006041D7F81C31D3F8A430584A0B43936520
:1024780003E097F82F3187F82E31D7F81C31D3E9CC
:10248800002302F00803C7F890300023C7F89430FF
:10249800D7E924120B4613431ED0D7F81C31D3F8C2
:1024A8008830B3F5805F0CD1D7F81C31283302216E
:1024B800184600F097FB0346002B02D0012387F84B
:1024C8002E31424B5B6D23F44051D7F81C31D3F8C1
:1024D80088303E4A0B435365D7F81C31D3E90023B3
:1024E80002F01003C7F888300023C7F88C30D7E90A
:1024F80022120B4613431ED0D7F81C31D3F89C3058
:10250800B3F5807F0CD1D7F81C3128330221184647
:1025180000F068FB0346002B02D0012387F82E3118
:102528002A4B9B6D23F44071D7F81C31D3F89C30AB
:10253800264A0B439365D7F81C31D3E9002302F4EC
:102548000023C7F880300023C7F88430D7E9201269
:102558000B46134340D0D7F81C31D3F8A830B3F555
:10256800003F22D0B3F5003F1BD8002B03D0B3F5B2
:10257800803F0BD015E0D7F81C31083300211846EE
:1025880000F07EFA034687F82F310FE0D7F81C31A8
:1025980028330221184600F025FB034687F82F311F
:1025A80004E0012387F82F3100E000BF97F82F31AE
:1025B800002B0DD1054B9B6D23F44031D7F81C310E
:1025C800D3F8A830014A0B43936505E0004402584C
:1025D80097F82F3187F82E31D7F81C31D3E900232B
:1025E80002F48023BB670023FB67D7E91E120B4662
:1025F80013433BD0D7F81C31D3F88C30B3F5401FC8
:102608001FD0B3F5401F18D8B3F5801F03D0B3F51A
:10261800001F07D011E0644BDB6A634A43F40033C0
:10262800D3620FE0D7F81C3128330121184600F097
:10263800D9FA034687F82F3104E0012387F82F31B0
:1026480000E000BF97F82F31002B0BD1564B5B6D84
:1026580023F44011D7F81C31D3F88C30524A0B437D
:10266800536503E097F82F3187F82E31D7F81C31DE
:10267800D3E9002302F480333B6700237B67D7E963
:102688001C120B46134331D0D7F81C315B6D002B5D
:1026980003D0B3F5803F07D011E0434BDB6A424AD1
:1026A80043F40033D3620EE0D7F81C31083302211B
:1026B800184600F0E5F9034687F82F3103E00123B7
:1026C80087F82F3100BF97F82F31002B0AD1364BEE
:1026D800DB6C23F48031D7F81C315B6D324A0B4335
:1026E800D36403E097F82F3187F82E31D7F81C31DF
:1026F800D3E9002302F00053BB660023FB66D7E949
:102708001A120B4613430CD0D7F81C312833022178
:10271800184600F067FA0346002B02D0012387F819
:102728002E31D7F81C31D3E9002302F400333B667D
:1027380000237B66D7E918120B4613433AD0D7F823
:102748001C31D3F88430B3F5407F18D0B3F5407FFF
:1027580011D8B3F5007F14D0B3F5007F0BD8002B48
:1027680011D0B3F5807F06D10F4BDB6A0E4A43F4D4
:102778000033D36208E0012387F82F3104E000BF5B
:1027880002E000BF00E000BF97F82F31002B0DD109
:10279800054B5B6D23F44071D7F81C31D3F88430B6
:1027A800014A0B43536505E00044025897F82F315E
:1027B80087F82E31D7F81C31D3E9002302F48013AF
:1027C800BB650023FB65D7E916120B46134309D0F6
:1027D800AA4B1B6D23F00041D7F81C319B6FA74A09
:1027E8000B431365D7F81C31D3E9002302F080535B
:1027F8003B6500237B65D7E914120B4613430AD0C7
:102808009E4B1B6923F48041D7F81C31D3F8BC30A8
:102818009A4A0B431361D7F81C31D3E9002302F419
:102828000013BB640023FB64D7E912120B46134361
:1028380009D0924B1B6D23F08071D7F81C311B6FA8
:102848008E4A0B431365D7F81C31D3E9002302F0F5
:1028580080433B6400237B64D7E910120B46134383
:102868000ED0864B1B69854A23F400431361834BC2
:102878001969D7F81C31D3F8C030804A0B4313616B
:10288800D7F81C31D3E9002302F00043BB630023CF
:10289800FB63D7E90E120B46134309D0774BDB6C69
:1028A80023F04051D7F81C319B6D744A0B43D36415
:1028B800D7F81C31D3E9002302F400033B6300235B
:1028C8007B63D7E90C120B4613430AD06B4B5B6D45
:1028D80023F44001D7F81C31D3F89030674A0B43F2
:1028E8005365D7F81C31D3E900230021B96203F0FE
:1028F8000103FB62D7E90A120B46134311D0D7F83C
:102908001C3108330021184600F0BAF8034687F84E
:102918002F3197F82F31002B03D097F82F3187F8F4
:102928002E31D7F81C31D3E900230021396203F096
:1029380002037B62D7E908120B46134311D0D7F87C
:102948001C3108330121184600F09AF8034687F82D
:102958002F3197F82F31002B03D097F82F3187F8B4
:102968002E31D7F81C31D3E900230021B96103F0D7
:102978000403FB61D7E906120B46134311D0D7F8BD
:102988001C3108330221184600F07AF8034687F80C
:102998002F3197F82F31002B03D097F82F3187F874
:1029A8002E31D7F81C31D3E900230021396103F017
:1029B80008037B61D7E904120B46134311D0D7F8FB
:1029C8001C3128330021184600F00CF9034687F81B
:1029D8002F3197F82F31002B03D097F82F3187F834
:1029E8002E31D7F81C31D3E900230021B96003F058
:1029F8001003FB60D7E902120B46134311D0D7F836
:102A08001C3128330121184600F0ECF8034687F8FA
:102A18002F3197F82F31002B03D097F82F3187F8F3
:102A28002E31D7F81C31D3E900230021396003F097
:102A380020037B60D7E900120B46134311D0D7F867
:102A48001C3128330221184600F0CCF8034687F8D9
:102A58002F3197F82F31002B03D097F82F3187F8B3
:102A68002E3197F82E31002B01D1002300E00123ED
:102A7800184607F59877BD46BDE8B08F0044025860
:102A880080B584B000AF786039600023FB73544B85
:102A98009B6A03F00303032B01D101239BE0504BF6
:102AA8001B684F4A23F080631360FDF75BFFB86033
:102AB80008E0FDF757FF0246BB68D31A022B01D97D
:102AC800032388E0464B1B6803F00063002BF0D11A
:102AD800434B9B6A23F47C327B681B681B03404989
:102AE80013438B627B685B68013BC3F308027B6816
:102AF8009B68013B5B029BB21A437B68DB68013B26
:102B08001B0403F4FE031A437B681B69013B1B0685
:102B180003F0FE43324913438B63314BDB6A23F0E6
:102B2800C0027B685B692E491343CB622C4BDB6A7E
:102B380023F020027B689B6929491343CB62284B09
:102B4800DB6A274A23F01003D362254BDB6B23F49F
:102B58007F4323F0F8037A68D269D20020491343EF
:102B6800CB631F4BDB6A1E4A43F01003D3623B68FA
:102B7800002B06D11A4BDB6A194A43F40023D362AF
:102B88000FE03B68012B06D1154BDB6A144A43F46E
:102B98008013D36205E0124BDB6A114A43F4001339
:102BA800D3620F4B1B680E4A43F080631360FDF736
:102BB800D9FEB86008E0FDF7D5FE0246BB68D31A17
:102BC800022B01D9032306E0054B1B6803F00063C1
:102BD800002BF0D0FB7B18461037BD4680BD00BFE8
:102BE8000044025880B584B000AF78603960002393
:102BF800FB73544B9B6A03F00303032B01D101239E
:102C08009BE0504B1B684F4A23F080531360FDF73D
:102C1800A9FEB86008E0FDF7A5FE0246BB68D31A16
:102C2800022B01D9032388E0464B1B6803F00053AD
:102C3800002BF0D1434B9B6A23F07C727B681B68A6
:102C48001B05404913438B627B685B68013BC3F3F8
:102C580008027B689B68013B5B029BB21A437B6856
:102C6800DB68013B1B0403F4FE031A437B681B6902
:102C7800013B1B0603F0FE43324913430B64314BFF
:102C8800DB6A23F440627B685B692E491343CB629D
:102C98002C4BDB6A23F400727B689B692949134338
:102CA800CB62284BDB6A274A23F48073D362254B17
:102CB8005B6C23F47F4323F0F8037A68D269D2006F
:102CC800204913434B641F4BDB6A1E4A43F480734D
:102CD800D3623B68002B06D11A4BDB6A194A43F4CE
:102CE8008003D3620FE03B68012B06D1154BDB6AEA
:102CF800144A43F40003D36205E0124BDB6A114A1D
:102D080043F08073D3620F4B1B680E4A43F0805325
:102D18001360FDF727FEB86008E0FDF723FE0246C2
:102D2800BB68D31A022B01D9032306E0054B1B68A5
:102D380003F00053002BF0D0FB7B18461037BD463C
:102D480080BD00BF0044025880B584B000AF7860F1
:102D58000123FB737B68002B73D07B6893F82130C9
:102D6800DBB2002B06D17B68002283F8202078682C
:102D7800FDF760FB7B68022283F821207B681B68D3
:102D8800DB6803F01003102B52D07B681B68CA2243
:102D98005A627B681B6853225A62786800F07AF896
:102DA8000346FB73FB7B002B26D17B681B689B6863
:102DB8007A68126823F4E00323F0400393607B6889
:102DC8001B6899687B685A687B681B691A437B682B
:102DD8009B691A437B681B680A439A607B689B68F7
:102DE80019047B68DA687B681B680A431A6178688B
:102DF80000F084F80346FB73FB7B002B13D17B6840
:102E08001B68DA6C7B681B6822F00302DA647B6853
:102E18001B68D96C7B68DA697B685B691A437B68D5
:102E28001B680A43DA647B681B68FF225A6201E068
:102E38000023FB73FB7B002B03D17B68012283F803
:102E48002120FB7B18461037BD4680BD80B584B075
:102E580000AF78607B681B680D4ADA60FDF782FD79
:102E6800F86009E0FDF77EFD0246FB68D31AB3F56A
:102E78007A7F01D9032307E07B681B68DB6803F0CE
:102E88002003002BEED0002318461037BD4680BD26
:102E98005FFF030080B584B000AF78600023FB7348
:102EA8007B681B68DB6803F04003002B20D17B683C
:102EB8001B684FF0FF32DA60FDF754FDB8600DE093
:102EC800FDF750FD0246BB68D31AB3F57A7F05D9E2
:102ED8000323FB737B68032283F821207B681B682C
:102EE800DB6803F04003002B02D1FB7B032BE7D107
:102EF800FB7B18461037BD4680BD000080B584B006
:102F080000AF78600023FB731A4BDB68194A23F083
:102F18004003D360174B9B6803F02003002B0CD1B0
:102F28007868FFF793FF0346002B1ED07B680322C7
:102F380083F821200323FB7317E00E4B9B680D4A8F
:102F480023F0200393607868FFF780FF0346002B87
:102F580005D07B68032283F821200323FB73054BEC
:102F68009B68044A43F020039360FB7B18461037A4
:102F7800BD4680BD0040005880B485B000AF786081
:102F880039607B6893F82030012B01D10223CCE013
:102F98007B68012283F820207B68022283F82120A5
:102FA8007B681B681B6CFB603B681B68FA681343F3
:102FB800FB603B689B68082B03D03B689B68022B2F
:102FC80006D13B681B685B00FA681343FB6006E0A8
:102FD8003B681B685B00DB43FA681340FB603B6897
:102FE800DB68002B1ED03B681B6803F00103002B35
:102FF80003D0FB6843F40033FB603B681B6803F0B5
:103008000803002B03D0FB6843F48013FB603B6884
:103018001B6803F02003002B22D0FB6843F4000355
:10302800FB601DE03B681B6803F00103002B03D025
:10303800FB6823F40033FB603B681B6803F008035C
:10304800002B03D0FB6823F48013FB603B681B68EC
:1030580003F02003002B03D0FB6823F40003FB607C
:103068003B681B69002B1ED03B681B6803F00103FB
:10307800002B03D0FB6843F48023FB603B681B688C
:1030880003F00803002B03D0FB6843F40013FB6034
:103098003B681B6803F02003002B22D0FB6843F039
:1030A8008073FB601DE03B681B6803F00103002B85
:1030B80003D0FB6823F48023FB603B681B6803F0A4
:1030C8000803002B03D0FB6823F40013FB603B6864
:1030D8001B6803F02003002B03D0FB6823F08073E8
:1030E800FB60FB6823F47F4323F08003FB603B68AD
:1030F8005A693B689B691A433B68DB691A433B681A
:103108001B6A1A433B685B6A1343FA681343FB6004
:103118007B681B68FA681A647B68012283F821209F
:103128007B68002283F82020002318461437BD4608
:103138005DF8047B704784B080B584B000AF7860D8
:1031480007F11C0080E80E003B6B012B22D17B6845
:103158009B6B23F480327B689A637B68DB6823F47B
:10316800840323F040037A68D3607B68DB6823F428
:1031780040127B68DA60FB6C012B05D17B68DB6849
:1031880043F480127B68DA60786800F0A9FA034695
:10319800FB731AE07B68DB6843F040027B68DA6007
:1031A800786800F09DFA0346FB733B6C002B06D150
:1031B8007B689B6B43F480327B689A6305E07B688D
:1031C8009B6B23F480327B689A637B6A012B18D14E
:1031D8007B68DB6D9AB27B68DA657B68DB6D43F0F0
:1031E8007B7343F400337A68D3657B689B6843F04C
:1031F80006027B689A607B689B6843F020027B68C4
:103208009A60FB7B18461037BD46BDE8804004B085
:10321800704780B483B000AF78607B689B6823F008
:1032280001027B689A60002318460C37BD465DF89A
:10323800047B704780B584B000AF78600B46FB70A4
:103248000023FB607B68DB6823F0C0427B68DA60A0
:10325800FB78012B15D17B68DB6843F000527B6853
:10326800DA600120FDF78AFBFB680133FB607868B0
:1032780000F028FA0346012B1ED0FB68312BF0D949
:103288001AE0FB78002B15D17B68DB6843F080429D
:103298007B68DA600120FDF771FBFB680133FB6096
:1032A800786800F00FFA0346002B05D0FB68312B35
:1032B800F0D901E0012305E0FB68322B01D101239D
:1032C80000E0002318461037BD4680BD84B080B5A5
:1032D80086B000AF786007F1240080E80E00002374
:1032E800FB757B68FB6000233B6109E07A683B69FA
:1032F80040339B00134400225A603B6901333B6111
:103308003B690E2BF2D9FB6C002B1CD1FB6803F533
:1033180000635B68FA6802F5006243F002035360D9
:103328007B689B6B23F400127B689A637B681B683D
:1033380043F040027B681A607B681B6843F0800298
:103348007B681A6005E07B689B6B43F400127B681E
:103358009A63FB6803F560631A4600231360FB68F1
:1033680003F500631946FB6803F500631A460B680A
:103378001360BB6B012B0CD13B6B002B04D10021DC
:10338800786800F065F908E00121786800F060F9D4
:1033980003E00321786800F05BF91021786800F0F9
:1033A800F3F80346002B01D00123FB75786800F081
:1033B8001FF90346002B01D00123FB75FB6803F5B9
:1033C80000631A4600231361FB6803F500631A467D
:1033D80000235361FB6803F500631A460023D36199
:1033E80000233B6143E03B695A01FB68134403F542
:1033F80010631B6803F00043B3F1004F18D13B6919
:10340800002B0AD13B695A01FB68134403F510638A
:103418001A464FF00063136013E03B695A01FB68DA
:10342800134403F510631A464FF09043136008E005
:103438003B695A01FB68134403F510631A460023DD
:1034480013603B695A01FB68134403F510631A467D
:10345800002313613B695A01FB68134403F51063A9
:103468001A464FF67F3393603B6901333B617B6AB1
:103478003A699A42B7D300233B6143E03B695A015A
:10348800FB68134403F530631B6803F00043B3F192
:10349800004F18D13B69002B0AD13B695A01FB68E0
:1034A800134403F530631A464FF00063136013E0CA
:1034B8003B695A01FB68134403F530631A464FF021
:1034C8009043136008E03B695A01FB68134403F515
:1034D80030631A46002313603B695A01FB681344A2
:1034E80003F530631A46002313613B695A01FB68F0
:1034F800134403F530631A464FF67F3393603B69F4
:1035080001333B617B6A3A699A42B7D3FB6803F59A
:1035180000631B69FA6802F5006223F48073136183
:103528007B6800229A617B686FF080425A61FB6A6F
:10353800002B05D17B689B6943F010027B689A6178
:103548007B689A690F4B13437A689361FB6B002B76
:1035580005D07B689B6943F008027B689A61FB6C25
:10356800012B07D17B689B6943F0804343F0040338
:103578007A689361FB7D18461837BD46BDE88040E0
:1035880004B0704700383C8080B485B000AF7860E4
:1035980039600023FB60FB680133FB60FB68134A5A
:1035A800934201D903231BE07B681B69002BF2DAE5
:1035B8000023FB603B689B0143F020027B681A6193
:1035C800FB680133FB60FB68084A934201D9032377
:1035D80006E07B681B6903F02003202BF0D0002352
:1035E80018461437BD465DF8047B7047400D03004C
:1035F80080B485B000AF78600023FB60FB680133BE
:10360800FB60FB68114A934201D9032318E07B68E9
:103618001B69002BF2DA0023FB607B6810221A6119
:10362800FB680133FB60FB68084A934201D9032316
:1036380006E07B681B6903F01003102BF0D0002311
:1036480018461437BD465DF8047B7047400D0300EB
:1036580080B485B000AF78600B46FB707B68FB6078
:10366800FB6803F500631A68FB78F96801F50061E7
:1036780013430B60002318461437BD465DF8047BDE
:10368800704780B485B000AF78607B68FB60FB68EA
:1036980003F560631B68FA6802F5606223F00303B0
:1036A8001360FB6803F500635B68FA6802F5006263
:1036B80043F002035360002318461437BD465DF8F3
:1036C800047B704780B483B000AF78607B685B6927
:1036D80003F0010318460C37BD465DF8047B7047BC
:1036E80080B485B000AF78600023FB60FB680133CD
:1036F800FB60FB68134A934201D903231BE07B68F4
:103708001B69002BF2DA0023FB607B681B6943F01E
:1037180001027B681A61FB680133FB60FB68094A98
:10372800934201D9032306E07B681B6903F0010378
:10373800012BF0D0002318461437BD465DF8047BF2
:10374800704700BF400D030070B50D4D0D4C641B54
:10375800A4100026A64209D10B4D0C4C00F020F80D
:10376800641BA4100026A64205D170BD55F8043B81
:1037780098470136EEE755F8043B98470136F2E7DB
:10378800D0371008D0371008D0371008D4371008B1
:1037980002440346934200D1704703F8011BF9E73E
:1037A800F8B500BFF8BC08BC9E467047F8B500BF26
:0837B800F8BC08BC9E467047F6
:1037C00000000000010203040102030406070809C7
:0437D000BD0210081E
:0437D400990210083E
:1037D8000090D0030090D00310000000010000000A
:04000005081007C90F
:00000001FF
