:020000040810E2
:1000000000800410F1121008E90F1008EF0F10081B
:10001000F50F1008FB0F1008011010080000000079
:1000200000000000000000000000000007101008A1
:1000300015101008000000002310100831101008DF
:100040004113100841131008411310084113100800
:1000500041131008411310084113100841131008F0
:1000600041131008411310084113100841131008E0
:1000700041131008411310084113100841131008D0
:1000800041131008411310084113100841131008C0
:1000900041131008411310084113100841131008B0
:1000A00041131008411310084113100841131008A0
:1000B0004113100841131008411310084113100890
:1000C0004113100841131008411310084113100880
:1000D0004113100841131008411310084113100870
:1000E00041131008411310080000000041131008CC
:1000F0004113100841131008411310084113100850
:10010000411310084113100841131008411310083F
:10011000411310084113100841131008411310082F
:10012000411310084113100841131008411310081F
:10013000411310084113100841131008411310080F
:1001400041131008411310080000000000000000D7
:1001500041131008411310084113100841131008EF
:1001600041131008411310084113100841131008DF
:10017000411310084113100841131008000000003B
:1001800041131008411310084113100841131008BF
:1001900041131008411310084113100841131008AF
:1001A000411310084113100841131008411310089F
:1001B00041131008411310083D1010084113100896
:1001C000411310084113100841131008411310087F
:1001D000411310084113100841131008411310086F
:1001E000411310084113100841131008411310085F
:1001F000411310084113100841131008411310084F
:10020000411310084113100841131008411310083E
:10021000411310084113100841131008411310082E
:10022000411310084113100841131008411310081E
:10023000411310084113100841131008411310080E
:1002400041131008411310084113100841131008FE
:1002500041131008411310084113100841131008EE
:1002600041131008411310084113100841131008DE
:1002700041131008411310084113100841131008CE
:10028000411310084113100841131008000000002A
:0802900041131008411310088E
:1002980010B5054C237833B9044B13B10448AFF3B8
:1002A80000800123237010BDD00000100000000062
:1002B800306B100808B5034B1BB103490348AFF373
:1002C800008008BD00000000D4000010306B10084A
:1002D80080B400AF094BD3F88830084A43F4700360
:1002E800C2F88830054B1B69044A43F010031361B8
:1002F80000BFBD465DF8047B704700BF00ED00E01D
:1003080080B500AF1E4B1F4A1A601F4B00221A709F
:100318001D4B80225A701C4BE1229A701A4B002206
:10032800DA70194B00221A71174B00225A71144BBC
:10033800154A5A60124B01221A72114B134ADA609D
:100348000F4B134A1A610E4B40F2F4525A610C4893
:1003580001F06EFB0346002B01D000F0AFFB382202
:1003680000210C4806F0D8FB0A4B21221A60094BE1
:100378004FF440325A61074B00221A6100BF80BD1A
:100388002401001000800240D40100107000001009
:1003980010000010EC00001080B58EB000AF78603F
:1003A80007F1240300221A605A609A60DA601A6121
:1003B8007B681B68494A934240F08B80484BD3F8CE
:1003C800D830474A43F40043C2F8D830444BD3F8F6
:1003D800D83003F400433B623B6A414BD3F8D83032
:1003E8003F4A43F48033C2F8D8303D4BD3F8D83075
:1003F80003F48033FB61FB69394BD3F8D830384AB2
:1004080043F40033C2F8D830354BD3F8D83003F46E
:100418000033BB61BB69324BD3F8E030304A43F05C
:100428004003C2F8E0302E4BD3F8E03003F040032D
:100438007B617B692A4BD3F8E030294A43F00403F7
:10044800C2F8E030264BD3F8E03003F004033B61F8
:100458003B69234BD3F8E030214A43F00103C2F84B
:10046800E0301F4BD3F8E03003F00103FB60FB687A
:100478004FF460537B620223BB620023FB620023BC
:100488003B630B237B6307F124031946154801F0EE
:10049800F3FE32237B620223BB620023FB6200234C
:1004A8003B630B237B6307F1240319460E4801F0D5
:1004B800E3FE86237B620223BB620023FB620023E8
:1004C8003B630B237B6307F124031946074801F0BC
:1004D800D3FE00BF3837BD4680BD00BF0080024054
:1004E8000044025800180258000802580000025838
:1004F80080B588B000AF3B1D00221A605A609A6030
:10050800DA601A615A619A611E4B1F4A1A601D4BC4
:1005180001225A601B4B00229A601A4B0822DA60AB
:10052800184B20221A61174B00225A61154B802262
:100538009A61144B0022DA61124B00221A62114BA5
:1005480000225A620F4B00229A6210237B6010230C
:10055800BB601023FB6010233B6110237B611023D9
:10056800BB611023FB613B1D1946064805F036FEAA
:100578000346002B01D000F0A1FA00BF2037BD468A
:1005880080BD00BFDC0100104041005280B5BAB008
:1005980000AF07F1D40300221A605A609A60DA604B
:1005A8001A615C4B1B68002B40F0B080594B01224C
:1005B8001A6007F10803C8220021184606F0ACFAB1
:1005C8004FF080724FF00003C7E9022300233B6518
:1005D80007F10803184602F0E7FB0346002B01D099
:1005E80000F06CFA4C4BD3F8D4304B4A43F48053A8
:1005F800C2F8D430484BD3F8D43003F480537B602E
:100608007B6840F2FF63C7F8D4300223C7F8D830BC
:100618000023C7F8DC300323C7F8E0300C23C7F801
:10062800E43007F1D40319463C4801F025FE4FF6A3
:100638008373C7F8D4300223C7F8D8300023C7F82B
:10064800DC300323C7F8E0300C23C7F8E43007F1A7
:10065800D4031946324801F00FFE4FF6E073C7F88D
:10066800D4300223C7F8D8300023C7F8DC3003237E
:10067800C7F8E0300C23C7F8E43007F1D403194673
:10068800284801F0F9FD48F21713C7F8D4300223BF
:10069800C7F8D8300023C7F8DC300323C7F8E030A8
:1006A8000C23C7F8E43007F1D40319461E4801F0BB
:1006B800E3FD4CF20373C7F8D4300223C7F8D830EF
:1006C8000023C7F8DC300323C7F8E0300C23C7F851
:1006D800E43007F1D4031946144801F0CDFD4FF674
:1006E8003F03C7F8D4300223C7F8D8300023C7F82F
:1006F800DC300323C7F8E0300C23C7F8E43007F1F7
:10070800D40319460A4801F0B7FD00E000BFE837F6
:10071800BD4680BD10020010004402580020025857
:1007280000100258001C025800180258000C025809
:100738000014025880B582B000AF7860FFF726FF3A
:1007480000BF0837BD4680BD80B58EB000AF07F149
:10075800240300221A605A609A60DA601A61534BC7
:10076800D3F8E030514A43F48073C2F8E0304F4B7D
:10077800D3F8E03003F480733B623B6A4B4BD3F809
:10078800E0304A4A43F00203C2F8E030474BD3F85E
:10079800E03003F00203FB61FB69444BD3F8E0301F
:1007A800424A43F01003C2F8E030404BD3F8E0303F
:1007B80003F01003BB61BB693C4BD3F8E0303B4A04
:1007C80043F04003C2F8E030384BD3F8E03003F090
:1007D80040037B617B69354BD3F8E030334A43F003
:1007E8008003C2F8E030314BD3F8E03003F08003E7
:1007F8003B613B692D4BD3F8E0302C4A43F00803AA
:10080800C2F8E030294BD3F8E03003F00803FB606E
:10081800FB68264BD3F8E030244A43F00403C2F8BF
:10082800E030224BD3F8E03003F00403BB60BB6830
:100838001E4BD3F8E0301D4A43F02003C2F8E030E5
:100848001A4BD3F8E03003F020037B607B68174B2A
:10085800D3F8E030154A43F00103C2F8E030134BF7
:10086800D3F8E03003F001033B603B6800224FF40B
:1008780080410F4801F0B0FE01224FF400410C48BE
:1008880001F0AAFE4FF440437B620123BB620023C0
:10089800FB6200233B6307F124031946044801F077
:1008A800EBFC00BF3837BD4680BD00BF004402588E
:1008B8000020025880B500AF154B164A1A60144B39
:1008C80000225A60124B00229A60114B1022DA6003
:1008D8000F4B00221A610E4B00225A610C4B00226A
:1008E8009A610B4B0022DA61094B4FF000421A6201
:1008F800074B00229A84064B074A9A62044800F084
:1009080015FE0346002B01D000F0D8F800BF80BDCB
:1009180014020010006C00405802001080B5BCB0F2
:1009280000AF786007F1DC0300221A605A609A6011
:10093800DA601A6107F11003C8220021184606F090
:10094800EBF87B681B682B4A93424ED14FF40002A8
:100958004FF00003C7E904234FF48003C7F8A03021
:1009680007F11003184602F01FFA0346002B01D0C6
:1009780000F0A4F8204BD3F8E8301F4A43F0006396
:10098800C2F8E8301C4BD3F8E83003F00063FB6092
:10099800FB68194BD3F8E030174A43F00203C2F85A
:1009A800E030154BD3F8E03003F00203BB60BB68BE
:1009B8004023C7F8DC301223C7F8E0300023C7F81B
:1009C800E4300023C7F8E8300523C7F8EC3007F116
:1009D800DC031946094801F04FFC002200215E2083
:1009E80000F0DDFF5E2000F0F4FF00BFF037BD46E9
:1009F80080BD00BF006C004000440258000402584B
:100A080080B582B000AF294BD3F8E030274A43F0D5
:100A18000073C2F8E030254BD3F8E03003F00073E0
:100A28007B607B68012001F00BFE01F0DDFF0122F5
:100A38000221002001F05EFF1D4B1B681B0903F01B
:100A48000F03072B08D11B4BD3F80431194A43F085
:100A58000103C2F8043107E0164BD3F81431154AE4
:100A680043F00103C2F8143100F068FCFFF748FCBA
:100A7800FFF73EFDFFF71EFF00F026F800F0A4F890
:100A880000F0F6F900F0E0FAFFF75EFE4FF47A7036
:100A980000F008FD4FF48041074801F0B6FD4FF41F
:100AA8000041054801F0B1FDF0E700BF00440258DD
:100AB80000ED00E0006402580020025880B400AF46
:100AC80072B600BFFEE7000080B58AB000AF3B46B3
:100AD80028220021184606F01FF8204B204A1A60E9
:100AE8001E4B00225A601D4B7F229A601B4BFF222F
:100AF800DA601A4B00221A61184B00229A61174BD0
:100B08000022DA61154B00225A61144804F08AFE6B
:100B18000346002B01D0FFF7D1FF01233B600123DF
:100B2800BB600023FB6000233B6100237B61002343
:100B3800BB610023FB6100233B6280237B623B4651
:100B48001946064804F086FF0346002B01D0FFF73C
:100B5800B5FF00BF2837BD4680BD00BF6802001042
:100B68000040005880B5B4B000AF786007F10803C2
:100B7800C8220021184605F0CFFF7B681B68104A81
:100B8800934219D14FF480024FF00003C7E90223C2
:100B98004FF40073C7F8C03007F10803184602F095
:100BA80003F90346002B01D0FFF788FF054B1B6FA5
:100BB800044A43F40043136700BFD037BD4680BDE5
:100BC800004000580044025880B500AF474B484ADF
:100BD8001A60464B00225A64444B00225A60434B29
:100BE80040229A64414B0022DA64404B00221A6585
:100BF8003E4B00229A603D4B00225A613B4B00223B
:100C08009A613A4B0022DA61384B3A4A1A62374BFA
:100C18000022DA60354B0022DA62344B00221A6374
:100C2800324B00225A63314B002283F838202F4B75
:100C38000122DA632D4B4FF480721A642B4B082281
:100C48005A652A4B01229A65284B0022DA65274B00
:100C580000221A66254B00225A66244B00229A6607
:100C6800224B0022DA66214B01221A671F4B002211
:100C78005A671E4804F0CEFF0346002B01D0FFF749
:100C88001DFF1D4B1D4A1A601B4B04225A641A4B48
:100C980000225A60184B00229A60174B00225A61B2
:100CA800154B0022DA61144B4BF680321A62124B54
:100CB8000022DA60104B0022DA620F4B00221A631E
:100CC8000D4B002283F838200B4B0122DA630A4BC4
:100CD8004FF480721A64084804F09CFF0346002B06
:100CE80001D0FFF7EBFE00BF80BD00BF8C020010F3
:100CF8000458014000EE020024030010245801406B
:100D080080B5BCB000AF786007F11003C82200219D
:100D1800184605F001FF7B681B684F4A934253D180
:100D28004FF480724FF00003C7E904230023FB66E9
:100D380007F11003184602F037F80346002B01D0DC
:100D4800FFF7BCFE454B1B68002B0ED1444BD3F874
:100D5800F030434A43F48003C2F8F030404BD3F8F4
:100D6800F03003F48003FB60FB683C4B1B680133E5
:100D78003A4A13607023C7F8DC300223C7F8E03022
:100D88000023C7F8E4300023C7F8E8300623C7F883
:100D9800EC3007F1DC031946324801F06DFA802384
:100DA800C7F8DC300223C7F8E0300023C7F8E43086
:100DB8000023C7F8E8300623C7F8EC3007F1DC0356
:100DC8001946294801F058FA7B681B68274A93425C
:100DD8003ED14FF480724FF00003C7E9042300238B
:100DE800FB6607F11003184601F0DEFF0346002BEF
:100DF80001D0FFF763FE194B1B68002B0ED1184B6F
:100E0800D3F8F030164A43F48003C2F8F030144B9C
:100E1800D3F8F03003F48003BB60BB680F4B1B684A
:100E280001330E4A13600823C7F8DC300223C7F8E1
:100E3800E0300023C7F8E4300023C7F8E830062381
:100E4800C7F8EC3007F1DC031946064801F014FA3C
:100E580000BFF037BD4680BD04580140BC030010F8
:100E68000044025800100258001802582458014043
:100E780080B500AF194B4FF040221A60174B002283
:100E88005A60164B00229A60144B0022DA60134B0A
:100E980000221A61114B00225A61104B00229A61FC
:100EA8000E4B0022DA610D4B00221A620B4B002216
:100EB8005A620A4B00229A62084B002283F82C20BF
:100EC800064B002283F82D20044805F0C3F9034699
:100ED800002B01D0FFF7F2FD00BF80BDC00300105A
:100EE80080B5BCB000AF786007F1DC0300221A605F
:100EF8005A609A60DA601A6107F11003C82200216B
:100F0800184605F009FE7B681B68B3F1402F44D1F1
:100F18004FF000624FF00003C7E904230023FB678A
:100F280007F11003184601F03FFF0346002B01D0DC
:100F3800FFF7C4FD1B4BD3F8E8301A4A43F480335B
:100F4800C2F8E830174BD3F8E83003F48033FB607D
:100F5800FB68144BD3F8E030124A43F00803C2F898
:100F6800E030104BD3F8E03003F00803BB60BB68F7
:100F78008023C7F8DC300223C7F8E0300023C7F825
:100F8800E4300023C7F8E8300923C7F8EC3007F14C
:100F9800DC031946044801F06FF900BFF037BD467D
:100FA80080BD00BF00440258000C025880B483B0D2
:100FB80000AF0A4BD3F8F430084A43F00203C2F8F2
:100FC800F430064BD3F8F43003F002037B607B68FF
:100FD80000BF0C37BD465DF8047B704700440258DB
:100FE80080B400AFFEE780B400AFFEE780B400AF86
:100FF800FEE780B400AFFEE780B400AFFEE780B440
:1010080000AF00BFBD465DF8047B704780B400AFF9
:1010180000BFBD465DF8047B704780B400AF00BFD9
:10102800BD465DF8047B704780B500AF00F01AFA42
:1010380000BF80BD80B500AF024800F0D9FA00BFFC
:1010480080BD00BF1402001080B500AF154B164AD2
:101058001A60144B09225A60124B00221A61114B74
:101068000022DA600F4B01229A610E4B0022DA61EE
:101078000C4B00221A620B4B00225A62094B0022C9
:10108800DA62084B00221A63064B00225A630548AD
:1010980001F0E8FA0346002B01D0FFF70FFD00BF6F
:1010A80080BD00BF100400100000044080B5C2B02D
:1010B80000AF07F58473A3F58273186007F1F40392
:1010C80000221A605A609A60DA601A6107F12803F0
:1010D800C8220021184605F01FFD07F58473A3F503
:1010E80082731B681B68794A934240F0EA804FF488
:1010F80080224FF00003C7E90A234FF48013C7F892
:10110800B43007F12803184601F04EFE0346002BC1
:1011180001D0FFF7D3FC01F075FC6D4BD3F8E0303C
:101128006B4A43F00203C2F8E030694BD3F8E03071
:1011380003F002037B627B6A654BD3F8E030644AB4
:1011480043F48073C2F8E030614BD3F8E03003F425
:1011580080733B623B6A5E4BD3F8E0305C4A43F0F5
:101168000403C2F8E0305A4BD3F8E03003F004032C
:10117800FB61FB69564BD3F8E030554A43F08003D6
:10118800C2F8E030524BD3F8E03003F08003BB6183
:10119800BB694F4BD3F8E0304D4A43F00103C2F826
:1011A800E0304B4BD3F8E03003F001037B617B69FF
:1011B80043F62343C7F8F4300223C7F8F830002376
:1011C800C7F8FC300223C7F800310A23C7F80431F6
:1011D80007F1F40319463F4801F04EF84FF4006355
:1011E800C7F8F4300223C7F8F8300023C7F8FC30FA
:1011F8000223C7F800310A23C7F8043107F1F403C2
:101208001946354801F038F80123C7F8F4300223AD
:10121800C7F8F8300023C7F8FC300223C7F80031BC
:101228000A23C7F8043107F1F40319462B4801F0E3
:1012380023F81023C7F8F4300223C7F8F830002346
:10124800C7F8FC300223C7F800310A23C7F8043175
:1012580007F1F4031946224801F00EF82823C7F8CD
:10126800F4300223C7F8F8300023C7F8FC30022313
:10127800C7F800310A23C7F8043107F1F403194607
:10128800184800F0F9FF124BD3F8D830104A43F051
:101298000073C2F8D8300E4BD3F8D83003F000737F
:1012A8003B613B690A4BD3F8D830094A43F0806365
:1012B800C2F8D830064BD3F8D83003F08063FB600F
:1012C800FB6800BF07F58477BD4680BD0000044079
:1012D800004402580004025800200258000802582E
:1012E800001C025800000258DFF834D0FEF7F0FF67
:1012F8000C480D490D4A002302E0D458C450043369
:10130800C4188C42F9D30A4A0A4C002301E013603E
:101318000432A242FBD305F0DBFBFFF771FB7047F9
:10132800008004100000001010000010606B10080E
:10133800D000001020090010FEE7000080B582B040
:1013480000AF284BD3F8D830264A43F48043C2F87C
:10135800D830244BD3F8D83003F480433B603B6843
:10136800214B1B6823F47F2323F470631E4A43F444
:10137800014313601C4B1B681B4A43F001031360B5
:10138800032000F001FB01F04DFB0246154B9B6961
:101398001B0A03F00F031549CB5C03F01F0322FA65
:1013A80003F37B600F4B9B6903F00F030F4AD35C79
:1013B80003F01F037A6822FA03F30D4A13600C4BFB
:1013C8001B680C4A1360002000F016F80346002B37
:1013D80001D0012302E0FFF7E9FD00231846083792
:1013E800BD4680BD0044025800440240486B1008C6
:1013F800040000100000001080B582B000AF7860D3
:10140800154B1B78002B01D1012321E0134B1A68DF
:10141800114B1B7819464FF47A73B3FBF1F3B2FB07
:10142800F3F3184600F0E3FA0346002B01D001233A
:101438000EE07B680F2B0AD8002279684FF0FF3046
:1014480000F0ADFA064A7B681360002300E0012330
:1014580018460837BD4680BD0C000010000000107B
:101468000800001080B400AF064B1B781A46064BE4
:101478001B681344044A136000BFBD465DF8047B33
:10148800704700BF0C0000101C09001080B400AFAA
:10149800034B1B681846BD465DF8047B704700BFC8
:1014A8001C09001080B584B000AF7860FFF7EEFF2C
:1014B800B8607B68FB60FB68B3F1FF3F05D00A4B5F
:1014C8001B781A46FB681344FB6000BFFFF7DEFF7A
:1014D8000246BB68D31AFA689A42F7D800BF00BF21
:1014E8001037BD4680BD00BF0C00001080B400AFAF
:1014F800034B1B681B0C1846BD465DF8047B704700
:101508000010005C80B483B000AF7860064B5B6865
:1015180023F4600204497B6813434B6000BF0C3717
:10152800BD465DF8047B70470004005880B582B062
:1015380000AF78607B68002B03D07B689B6A002B28
:1015480001D1012350E07B689B6B002B06D17B689F
:10155800002283F834207868FFF7E0F97B682422BA
:101568009A637B681B681A687B681B6822F0010213
:101578001A607B685A687B689B681A437B68DB68DB
:101588001A437B681B691A437B685B691A437B684B
:101598009B691A437B68DB691A437B689B8C1B0435
:1015A80042EA03017B681A6A7B681B680A435A602F
:1015B8007B681B685B697A6812686FEA53336FEA65
:1015C800433353617B681B681A687B681B6842F069
:1015D80001021A607B6800221A647B6820229A63E1
:1015E8007B682022DA63002318460837BD4680BD91
:1015F80080B584B000AF78607B681B681B69FB60AE
:10160800FB6803F08003002B0AD07B6880221A64F1
:101618007B681B681A697B681B6842F080021A6144
:10162800FB6803F00103002B1CD07B682222DA63DD
:101638007B685B8E01339AB27B685A867B681B682D
:10164800DA687B689B6AD2B21A707B689B6A5A1CFC
:101658007B689A627B681B681A697B681B6842F022
:1016680001021A61FB6803F00203002B1ED07B689D
:101678001B681A697B681B6842F002021A617B6862
:101688002022DA637B6800221A647B689A6A7B6886
:101698005B8E5B421A447B689A627B685B8E194654
:1016A800786800F08CF87B6800225A86FB6803F49F
:1016B8008073002B24D07B681B8E013B9AB27B6819
:1016C8001A867B681B8E002B07D17B681B681A68FB
:1016D8007B681B6842F004021A607B68DB6A1A7830
:1016E8007B681B689A607B68DB6A5A1C7B68DA62D5
:1016F8007B681B681A697B681B6842F480721A61F0
:10170800FB6803F40073002B14D07B681B681A690C
:101718007B681B6842F400721A617B6820229A6316
:101728007B68002283F834207B6800221A6478687A
:1017380000F03BF8FA6841F67C431340002B30D0A8
:101748007B68FA681A647B681B681B697A68126888
:1017580043F4E35343F01C031361FB6803F07C0379
:10176800002B0ED07B689A6A7B685B8E5B421A44BA
:101778007B689A627B6800225A867B682022DA633B
:101788000CE0FB6803F08003002B07D1FB6803F42F
:10179800E053002B02D07B6820229A63786800F01F
:1017A80019F800BF1037BD4680BD80B483B000AFC4
:1017B800786000BF0C37BD465DF8047B704780B485
:1017C80083B000AF7860396000BF0C37BD465DF864
:1017D800047B704780B483B000AF786000BF0C37DB
:1017E800BD465DF8047B704780B485B000AF786073
:1017F8007B6803F00703FB600C4BDB68BB60BA68CF
:101808004FF6FF031340BB60FB681A02BB68134323
:1018180043F0BF6343F40033BB60044ABB68D36042
:1018280000BF1437BD465DF8047B704700ED00E04B
:1018380080B400AF044BDB681B0A03F007031846AB
:10184800BD465DF8047B704700ED00E080B483B0CE
:1018580000AF0346FB80B7F90630002B0BDBFB8893
:1018680003F01F020749B7F906305B09012000FAA7
:1018780002F241F8232000BF0C37BD465DF8047B17
:10188800704700BF00E100E080B483B000AF0346BA
:101898003960FB80B7F90630002B0ADB3B68DAB207
:1018A8000C49B7F906301201D2B20B4483F8002371
:1018B8000AE03B68DAB20849FB8803F00F03043BEF
:1018C8001201D2B20B441A7600BF0C37BD465DF840
:1018D800047B704700E100E000ED00E080B489B0CF
:1018E80000AFF860B9607A60FB6803F00703FB613A
:1018F800FB69C3F10703042B28BF0423BB61FB6901
:101908000433062B02D9FB69033B00E000237B610B
:101918004FF0FF32BB6902FA03F3DA43BB681A409F
:101928007B699A404FF0FF317B6901FA03F3D94391
:101938007B680B40134318462437BD465DF8047B8B
:101948007047000080B582B000AF78607B68013BCB
:10195800B3F1807F01D301230FE00A4A7B68013B82
:1019680053600F214FF0FF30FFF78EFF054B002229
:101978009A60044B07221A60002318460837BD46B0
:1019880080BD00BF10E000E080B582B000AF786095
:101998007868FFF729FF00BF0837BD4680BD80B5CE
:1019A80086B000AF0346B9607A60FB81FFF740FF5D
:1019B80078617A68B9687869FFF790FF0246B7F9E5
:1019C8000E3011461846FFF75FFF00BF1837BD46B7
:1019D80080BD80B582B000AF0346FB80B7F9063002
:1019E8001846FFF733FF00BF0837BD4680BD80B5F6
:1019F80082B000AF78607868FFF7A4FF0346184606
:101A08000837BD4680BD000080B400AF074B1B6897
:101A18001B0903F00F03072B01D1032300E0012367
:101A28001846BD465DF8047B704700BF00ED00E036
:101A380080B584B000AF78607B68002B01D10123AA
:101A4800D1E07B68D3F88430002B06D17B68232251
:101A5800C3F884207868FEF79FFC654BD3F8F43010
:101A6800634A43F00203C2F8F430614BD3F8F43010
:101A780003F00203BB60BB687B681B7A002B03D1B1
:101A88000020FFF73FFD03E04FF40000FFF73AFDA9
:101A9800584B5B687B681B6803F580531B687A6842
:101AA800126843F0010302F580521360FFF7EEFC61
:101AB800F86011E0FFF7EAFC0246FB68D31AB3F5B9
:101AC800FA7F09D97B680422C3F888207B68E02262
:101AD800C3F88420012386E07B681B6803F58053E4
:101AE8001B6803F00103002BE4D1786800F086F846
:101AF80001F012F90346404AA2FB03239A0C7B68C3
:101B08001B68013AC3F8DC20786800F071FA7B683A
:101B18001B6803F58053D3F8003123F4E0137A6887
:101B2800126843F4002302F58052C2F800317B6842
:101B38005B6903F00303002B09D07B680122C3F81B
:101B480088207B68E022C3F8842001234BE07B686F
:101B58001B6803F58053D3F8083123F4FF4323F0BF
:101B68007E037A68526951007A6812680B4302F55D
:101B78008052C2F80831786800F0D7FA786800F027
:101B88001DFB7B685B6805331B781A027B685B6802
:101B980004331B7819467B681B680A43C3F8002383
:101BA8007B685B6803331B781A067B685B680233C3
:101BB8001B781B041A437B685B6801331B781B0284
:101BC8001A437B685B681B7819467B681B680A4365
:101BD800C3F804237B680022C3F888207B6810229E
:101BE800C3F88420002318461037BD4680BD00BFC7
:101BF800004402580004005883DE1B4380B584B0BB
:101C080000AF78607B681B68D3F80032FB60FB6824
:101C180023F47063FB6001F07FF8B860BB681E4A6C
:101C2800934208D9BB681D4A934204D8FB6843F421
:101C38000073FB6027E0BB68184A934208D9BB6869
:101C4800174A934204D2FB6843F44073FB601AE0DE
:101C5800BB68134A934203D3BB68124A934211D913
:101C6800BB68104A934208D9BB680F4A934204D80C
:101C7800FB6843F48073FB6005E0FB6843F4806312
:101C8800FB6000E000BF7B681B68FA68C3F80022AD
:101C980000BF1037BD4680BDFF2C3101BF0E1602B4
:101CA80000879303FFE0F5057FD1F00880B485B085
:101CB80000AF786039603B689A683B681B681A43D4
:101CC8003B681B79DB061A433B681B7BDB051A4321
:101CD8003B685B7B9B051A433B689B7B5B051A4310
:101CE8003B68DB7B1B0513433A68127C002A02D150
:101CF8004FF4002200E0002213433A68527C002A85
:101D080002D14FF4003200E000221A433B689B7C6A
:101D18001B041A433B685B691A433B689B691A4377
:101D28003B681B7F1B031A433B685B7FDB02134343
:101D38003A68927F002A02D14FF4806200E00022C4
:101D48001A433B68DB7F5B0213433A6892F8202012
:101D5800002A02D14FF4807200E000221A433B6847
:101D68005B6A1A433B6893F828301B011A433B68A7
:101D7800DB6A1343FB607B681B681A68574B134088
:101D88007A681268F9680B4313603B68DB6B5A0684
:101D98003B6893F838301B061A433B6893F8303099
:101DA8009B041A433B6893F831305B0413433A6849
:101DB80092F83220002A02D14FF4803200E000224B
:101DC8001A433B685B6B1343FB607B681B685A686C
:101DD800434B13407A681268F9680B4353603B68B9
:101DE80093F840301A023B685B6C1343FB607B68D6
:101DF8001B68DB6823F4877323F001037A68126891
:101E0800F9680B43D3603B6893F854305A003B6839
:101E18001B6D13433A6892F84C20002A01D18022A6
:101E280000E000221A433B689B6C1B041343FB60D1
:101E38007B681B681A6F4FF60D7313407A68126837
:101E4800F9680B4313673B6893F856301A463B68AA
:101E580093F855305B001343FB607B681B68D3F82D
:101E6800903023F003017B681B68FA680A43C3F8C3
:101E780090207B681B68D3F8003D23F072013B6813
:101E88009A6D7B681B680A43C3F8002D3B68DB6DBD
:101E98003A6892F86020002A01D1402200E000222E
:101EA8001A433B6893F861301B011A433B6893F867
:101EB8006230DB001343FB607B681B68D3F8303D5E
:101EC80023F07B017B681B68FA680A43C3F8302D4E
:101ED80000BF1437BD465DF8047B7047838004005B
:101EE8000080F8C080B485B000AF786039607B6846
:101EF8001B6803F580531B6823F4F04323F00203A7
:101F08003A6811687A6812680B4302F580521360C8
:101F18003B681B791A033B689B681A433B681B7B29
:101F2800DB031343FB607B681B6803F580535B6826
:101F380023F4504323F001037A681268F9680B43CD
:101F480002F5805253603B685B7B1A043B681B6A4E
:101F58001343FB607B681B6803F58053D3F80021AB
:101F6800214B13407A681268F9680B4302F58052D6
:101F7800C2F800313B681A693B681B7D1B011A4394
:101F88003B685B7F1B031343FB607B681B6803F59F
:101F98008053D3F80421154B13407A681268F96806
:101FA8000B4302F58052C2F804313B681B7FDA0705
:101FB8003B689B691343FB607B681B6803F5805390
:101FC800D3F8083123F0004323F47C137A681268AD
:101FD800F9680B4302F58052C2F8083100BF143784
:101FE800BD465DF8047B704700C0FEFFEFEFC0FF01
:101FF80080B5A4B000AF7860012387F83B30002398
:102008003B65002387F84930002387F84B300123CC
:1020180087F83030012387F85E30012387F83A309B
:10202800002387F85430012387F88C304FF400538D
:102038007B64002387F864300023BB66002387F89D
:102048008D30002387F88E304FF4C3633B6600233E
:1020580087F8383000237B63012387F83D3000235D
:1020680087F83E30002387F848300023FB670023B9
:102078007B670023BB65002387F86C30002387F853
:102088008230012387F84A302023C7F8883001239B
:1020980087F84C30002387F85D304FF04053FB62DF
:1020A8004FF480433B64002387F839300223C7F894
:1020B8008430002387F88030002387F8813000239C
:1020C80087F85C30012387F83C3000233B67012305
:1020D80087F8783007F12C0319467868FFF7E6FD92
:1020E80001233B7301233B610023BB60002387F876
:1020F800243000237B7500233B754FF400133B62AB
:1021080000233B774FF40013BB61002387F8253089
:102118004FF40673BB6207F1080319467868FFF7A6
:10212800E1FE00BF9037BD4680BD80B485B000AFEA
:1021380078600023FB601DE07B68D968FA68134665
:102148005B001344DB000B44BB60BB6800221A60D1
:10215800BB6800225A60BB6800229A60BB680022F4
:10216800DA60B9687B68FA68063243F82210FB68BF
:102178000133FB60FB68032BDED97B6800229A627F
:102188007B681B6803F580531A460323C2F82C3179
:102198007B68DA687B681B6803F58053C3F81421F1
:1021A8007B68DA687B681B6803F58053C3F82021D5
:1021B80000BF1437BD465DF8047B704780B485B016
:1021C80000AF78600023FB6023E07B681969FA6838
:1021D80013465B001344DB000B44BB60BB68002262
:1021E8001A60BB6800225A60BB6800229A60BB680C
:1021F8000022DA60BB6800221A61BB6800225A61BB
:10220800B9687B68FA68123243F82210FB68013318
:10221800FB60FB68032BD8D97B680022DA657B68F2
:1022280000221A667B6800229A667B680022DA66BA
:102238007B6800229A657B681B6803F580531A4601
:102248000323C2F830317B681A697B681B6803F581
:102258008053C3F81C217B681B6903F148027B6823
:102268001B6803F58053C3F8282100BF1437BD4607
:102278005DF8047B7047000080B489B000AF7860D7
:1022880039600023FB61894B7B6194E13B681A68E4
:102298000121FB6901FA03F313403B613B69002B01
:1022A80000F086813B685B6803F00303012B05D0CF
:1022B8003B685B6803F00303022B30D17B689B68A3
:1022C800BB61FB695B00032202FA03F3DB43BA69D3
:1022D8001340BB613B68DA68FB695B0002FA03F3F1
:1022E800BA691343BB617B68BA699A607B685B68AB
:1022F800BB610122FB6902FA03F3DB43BA691340AD
:10230800BB613B685B681B0903F00102FB6902FAC9
:1023180003F3BA691343BB617B68BA695A603B68C7
:102328005B6803F00303032B17D07B68DB68BB6192
:10233800FB695B00032202FA03F3DB43BA6913402B
:10234800BB613B689A68FB695B0002FA03F3BA69F0
:102358001343BB617B68BA69DA603B685B6803F06A
:102368000303022B23D1FB69DA087B68083253F890
:102378002230BB61FB6903F007039B000F2202FABE
:1023880003F3DB43BA691340BB613B681A69FB6915
:1023980003F007039B0002FA03F3BA691343BB6116
:1023A800FB69DA087B680832B96943F822107B6850
:1023B8001B68BB61FB695B00032202FA03F3DB4382
:1023C800BA691340BB613B685B6803F00302FB69B1
:1023D8005B0002FA03F3BA691343BB617B68BA690D
:1023E8001A603B685B6803F44033002B00F0E08020
:1023F8002F4BD3F8F4302E4A43F00203C2F8F430DE
:102408002B4BD3F8F43003F00203FB60FB68294A36
:10241800FB699B08023352F82330BB61FB6903F068
:1024280003039B000F2202FA03F3DB43BA6913404C
:10243800BB617B68204A934252D07B681F4A934213
:1024480031D07B681E4A93422BD07B681D4A934249
:1024580025D07B681C4A93421FD07B681B4A934255
:1024680019D07B681A4A934213D07B68194A934261
:102478000DD07B68184A934207D07B68174A93426D
:1024880001D109232DE00A232BE0082329E00723A3
:1024980027E0062325E0052323E0042321E0032386
:1024A8001FE002231DE001231BE000BFC00000580D
:1024B8000044025800040058000002580004025862
:1024C80000080258000C0258001002580014025864
:1024D80000180258001C0258002002580024025814
:1024E8000023FA6902F0030292009340BA69134389
:1024F800BB613849FB699B080233BA6941F823205C
:102508004FF0B0431B68BB613B69DB43BA691340BA
:10251800BB613B685B6803F48013002B03D0BA6986
:102528003B691343BB614FF0B042BB6913604FF086
:10253800B0435B68BB613B69DB43BA691340BB616D
:102548003B685B6803F40013002B03D0BA693B694E
:102558001343BB614FF0B042BB6953607B695B6852
:10256800BB613B69DB43BA691340BB613B685B688D
:1025780003F40033002B03D0BA693B691343BB61F2
:102588007B69BA695A607B691B68BB613B69DB433D
:10259800BA691340BB613B685B6803F48033002B66
:1025A80003D0BA693B691343BB617B69BA691A6096
:1025B800FB690133FB613B681A68FB6922FA03F384
:1025C800002B7FF463AE00BF00BF2437BD465DF823
:1025D800047B70470004005880B483B000AF786073
:1025E8000B467B8013467B707B78002B03D07A8860
:1025F8007B689A6103E07B881A047B689A6100BF54
:102608000C37BD465DF8047B704780B485B000AFD9
:1026180078600B467B807B685B69FB607A88FB6827
:1026280013401A04FB68D9437B880B401A437B6824
:102638009A6100BF1437BD465DF8047B70470000FF
:1026480080B483B000AF7860054B1A6804497B6892
:1026580013430B6000BF0C37BD465DF8047B704721
:1026680010650258F0B58FB00AAF78607B68002B10
:1026780001D1012316E17B681B68BB607B6893F876
:10268800BD34DBB2002B06D17B68002283F8BC2462
:102698007868FEF70BFD7B68032283F8BD24BB68CE
:1026A800DB6B03F48073002B02D17B680022DA60B5
:1026B8007B681B68184603F06FFF7B681B683B60EC
:1026C8007E686D4606F110040FCC0FC50FCC0FC500
:1026D80094E8030085E80300331D0ECB386803F047
:1026E800EDFE0346002B05D07B68022283F8BD244B
:1026F8000123D7E07B681B680021184603F05DFFC3
:102708000023FB734AE0FA7B79681346DB00134425
:102718009B000B443D3301221A70FA7B79681346FB
:10272800DB0013449B000B443C33FA7B1A70FA7BA2
:10273800FB7B98B279681346DB0013449B000B447B
:10274800563302461A80FA7B79681346DB00134435
:102758009B000B44403300221A70FA7B79681346B9
:10276800DB0013449B000B44443300221A60FA7BBD
:1027780079681346DB0013449B000B44483300225E
:102788001A60FA7B79681346DB0013449B000B44FC
:102798004C3300221A60FB7B0133FB73FA7B7B68A6
:1027A8005B689A42AFD30023FB7344E0FA7B7968F5
:1027B8001346DB0013449B000B4403F27D230022E5
:1027C8001A70FA7B79681346DB0013449B000B44AC
:1027D80003F51F73FA7B1A70FA7B79681346DB00DE
:1027E80013449B000B4403F5207300221A70FA7BF4
:1027F80079681346DB0013449B000B4403F52173EF
:1028080000221A60FA7B79681346DB0013449B00A8
:102818000B4403F5227300221A60FA7B7968134689
:10282800DB0013449B000B4403F5237300221A605A
:10283800FB7B0133FB73FA7B7B685B689A42B5D3F9
:102848007B681B683B607E686D4606F110040FCC00
:102858000FC50FCC0FC594E8030085E80300331DAE
:102868000ECB386803F0F6FE0346002B05D07B68D4
:10287800022283F8BD24012314E07B68002283F838
:1028880038207B68012283F8BD247B685B6A012BB2
:1028980002D1786800F00AF87B681B68184604F0D3
:1028A800B4F8002318461437BD46F0BD80B485B08F
:1028B80000AF78607B681B68FB607B680122C3F807
:1028C80000257B68002283F8F424FB689B6943F0A9
:1028D8000062FB689A61FB685B6D43F0805343F0CC
:1028E8000303FA685365002318461437BD465DF89C
:1028F800047B704780B584B000AFF8600B467A60FF
:10290800FB72374B1B6823F001023549FB68134300
:102918000B607B68002B23D1FFF776F80346032B67
:1029280058D12F4B1B692E4A23F0010313612D4BFD
:102938001B692C4A43F004031361BFF34F8F00BF98
:10294800BFF36F8F00BFFB7A012B01D130BF00E0CE
:1029580020BF244B1B69234A23F0040313613CE086
:102968007B68012B23D1FFF74FF80346012B33D1A6
:102978001B4B5B691A4A23F002035361194B1B690D
:10298800184A43F004031361BFF34F8F00BFBFF32E
:102998006F8F00BFFB7A012B01D130BF00E020BF51
:1029A800104B1B690F4A23F00403136115E0FFF76E
:1029B8002BF80346032B06D1094B1B69084A23F061
:1029C8000403136109E0064B5B69054A23F004031D
:1029D800536102E000BF00E000BF1037BD4680BD74
:1029E8000048025800ED00E080B500AFFFF70CF892
:1029F8000346032B01D120BF01E040BF20BF00BF29
:102A080080BD000080B400AF054BDB68044A43F08A
:102A18008073D36000BFBD465DF8047B704700BF7C
:102A28000048025880B489B000AFB34B1B6903F06B
:102A38003803182B00F2558101A252F823F000BF89
:102A4800AD2A1008EB2C1008EB2C1008EB2C100802
:102A5800EB2C1008EB2C1008EB2C1008EB2C1008B2
:102A6800D32A1008EB2C1008EB2C1008EB2C1008BC
:102A7800EB2C1008EB2C1008EB2C1008EB2C100892
:102A8800D92A1008EB2C1008EB2C1008EB2C100896
:102A9800EB2C1008EB2C1008EB2C1008EB2C100872
:102AA800DF2A1008944B1B6803F02003002B09D081
:102AB800914B1B68DB0803F00303904A22FA03F3E7
:102AC800BB6111E18D4BBB610EE18D4BBB610BE12D
:102AD8008C4BBB6108E1884B9B6A03F003037B6165
:102AE800854B9B6A1B0903F03F033B61824BDB6A02
:102AF80003F00103FB60804B5B6BDB08C3F30C0343
:102B0800FA6802FB03F307EE903AF8EE677AC7ED2E
:102B1800027A3B69002B00F0E1807B69022B00F010
:102B280083807B69022B00F2A1807B69002B03D094
:102B38007B69012B56D099E06F4B1B6803F020038B
:102B4800002B2DD06C4B1B68DB0803F003036B4A8A
:102B580022FA03F37B607B6807EE903AF8EE676A27
:102B68003B6907EE903AF8EE677A86EEA77A624BF1
:102B78001B6BC3F3080307EE903AF8EE676A97ED0C
:102B8800026ADFED615AC6EE257A76EEA77AF7EE8D
:102B9800006A77EEA67A67EE277AC7ED077A87E0AC
:102BA8003B6907EE903AF8EE677ADFED586A86EEF1
:102BB800A77A514B1B6BC3F3080307EE903AF8EE64
:102BC800676A97ED026ADFED505AC6EE257A76EE0F
:102BD800A77AF7EE006A77EEA67A67EE277AC7ED4E
:102BE800077A65E03B6907EE903AF8EE677ADFED21
:102BF800486A86EEA77A404B1B6BC3F3080307EEBF
:102C0800903AF8EE676A97ED026ADFED3F5AC6EE32
:102C1800257A76EEA77AF7EE006A77EEA67A67EE5F
:102C2800277AC7ED077A43E03B6907EE903AF8EE5A
:102C3800677ADFED386A86EEA77A2F4B1B6BC3F3F2
:102C4800080307EE903AF8EE676A97ED026ADFED3F
:102C58002E5AC6EE257A76EEA77AF7EE006A77EE58
:102C6800A67A67EE277AC7ED077A21E03B6907EE77
:102C7800903AF8EE677ADFED266A86EEA77A1E4B61
:102C88001B6BC3F3080307EE903AF8EE676A97EDFB
:102C9800026ADFED1D5AC6EE257A76EEA77AF7EEC0
:102CA800006A77EEA67A67EE277AC7ED077A00BF43
:102CB800114B1B6B5B0A03F07F0301333B603B68DE
:102CC80007EE903AB8EE677AD7ED076AC6EE877ACC
:102CD800FCEEE77A17EE903ABB6105E00023BB6192
:102CE80002E0074BBB6100BFBB6918462437BD46ED
:102CF8005DF8047B704700BF004402580090D00381
:102D080000093D0040787D01000000460024744C15
:102D18000024744A20BCBE4B80B582B000AFFFF7D8
:102D280081FE0246114B9B691B0A03F00F031049F1
:102D3800CB5C03F01F0322FA03F37B600B4B9B6908
:102D480003F00F030A4AD35C03F01F037A6822FAE0
:102D580003F3084A1360074B1B68074A1360054BC7
:102D68001B6818460837BD4680BD00BF004402589E
:102D7800486B1008040000100000001080B500AF78
:102D8800FFF7CAFF0246064BDB691B0903F007037E
:102D98000449CB5C03F01F0322FA03F3184680BDF5
:102DA80000440258486B10082DE9B04FCCB000AF72
:102DB800C7F81C01002387F82F31002387F82E312C
:102DC800D7F81C31D3E9002302F00064002554EA47
:102DD800050349D0D7F81C31DB6EB3F5401F2FD05F
:102DE800B3F5401F28D8B3F5001F1AD0B3F5001F5C
:102DF80022D8002B03D0B3F5801F07D01CE0B84BB6
:102E0800DB6AB74A43F40033D3621AE0D7F81C31BF
:102E180008330221184602F0A1FB034687F82F3138
:102E28000FE0D7F81C3128330221184602F048FC7D
:102E3800034687F82F3104E0012387F82F3100E09B
:102E480000BF97F82F31002B0AD1A54B1B6D23F437
:102E58004011D7F81C31DB6EA14A0B43136503E020
:102E680097F82F3187F82E31D7F81C31D3E9002392
:102E780002F480784FF0000958EA090347D0D7F8E0
:102E88001C31DB6D042B2AD801A252F823F000BFB5
:102E9800AD2E1008BB2E1008D12E1008EF2E1008EA
:102EA800EF2E10088E4BDB6A8D4A43F40033D36251
:102EB8001AE0D7F81C3108330021184602F04EFBFF
:102EC800034687F82F310FE0D7F81C31283300214B
:102ED800184602F0F5FB034687F82F3104E001237A
:102EE80087F82F3100E000BF97F82F31002B0AD167
:102EF8007B4B1B6D23F00701D7F81C31DB6D784A3B
:102F08000B43136503E097F82F3187F82E31D7F874
:102F18001C31D3E9002302F4007A4FF0000B5AEA7F
:102F28000B034CD0D7F81C311B6EB3F5807F30D023
:102F3800B3F5807F29D8C02B2DD0C02B25D8802B66
:102F480018D0802B21D8002B02D0402B07D01CE0B2
:102F5800634BDB6A624A43F40033D3621CE0D7F860
:102F68001C3108330021184602F0F8FA034687F8A6
:102F78002F3111E0D7F81C3128330021184602F010
:102F88009FFB034687F82F3106E0012387F82F318E
:102F980002E000BF00E000BF97F82F31002B0AD1F4
:102FA8004F4B1B6D23F4E071D7F81C311B6E4C4A54
:102FB8000B43136503E097F82F3187F82E31D7F8C4
:102FC8001C31D3E9002302F48063C7F810310023D1
:102FD800C7F81431D7E944120B46134353D0D7F836
:102FE8001C31D3F8AC30B3F5000F35D0B3F5000F72
:102FF8002ED8B3F5C00F31D0B3F5C00F28D8B3F52C
:10300800800F1AD0B3F5800F22D8002B03D0B3F568
:10301800001F07D01CE0324BDB6A314A43F400330F
:10302800D3621CE0D7F81C3108330021184602F09F
:1030380095FA034687F82F3111E0D7F81C31283369
:103048000021184602F03CFB034687F82F3106E0C2
:10305800012387F82F3102E000BF00E000BF97F896
:103068002F31002B0BD11E4B9B6D23F46001D7F839
:103078001C31D3F8AC301A4A0B43936503E097F838
:103088002F3187F82E31D7F81C31D3E9002302F409
:103098000063C7F808310023C7F80C31D7E942129A
:1030A8000B46134356D0D7F81C31D3F8B030B3F1E0
:1030B800806F38D0B3F1806F31D8B3F1407F34D00E
:1030C800B3F1407F2BD8B3F1007F1DD0B3F1007F5F
:1030D80025D8002B06D0B3F1807F0AD01FE000BFAF
:1030E80000440258A24BDB6AA14A43F40033D3627E
:1030F8001CE0D7F81C3108330021184602F02EFADC
:10310800034687F82F3111E0D7F81C312833002106
:10311800184602F0D5FA034687F82F3106E0012356
:1031280087F82F3102E000BF00E000BF97F82F3189
:10313800002B0BD18E4B9B6D23F0E061D7F81C312F
:10314800D3F8B0308A4A0B43936503E097F82F31E0
:1031580087F82E31D7F81C31D3E9002302F0007329
:10316800C7F800310023C7F80431D7E940120B46ED
:1031780013433AD0D7F81C31DB6C302B1FD0302BDF
:1031880019D8202B0CD0202B15D8002B19D0102B98
:1031980011D1774BDB6A764A43F40033D36211E0EE
:1031A800D7F81C3108330221184602F0D7F9034634
:1031B80087F82F3106E0012387F82F3102E000BF9E
:1031C80000E000BF97F82F31002B0AD1684BDB6C69
:1031D80023F03001D7F81C31DB6C654A0B43D3640C
:1031E80003E097F82F3187F82E31D7F81C31D3E94F
:1031F800002302F48053C7F8F8300023C7F8FC30E6
:10320800D7E93E120B46134351D0D7F81C315B6EF9
:10321800B3F5804F35D0B3F5804F2ED8B3F5405F66
:1032280031D0B3F5405F28D8B3F5005F1AD0B3F5B5
:10323800005F22D8002B03D0B3F5805F07D01CE0D5
:103248004B4BDB6A4A4A43F40033D3621CE0D7F89D
:103258001C3108330021184602F080F9034687F82C
:103268002F3111E0D7F81C3128330021184602F01D
:1032780027FA034687F82F3106E0012387F82F3114
:1032880002E000BF00E000BF97F82F31002B0AD101
:10329800374B1B6D23F4E041D7F81C315B6E344A81
:1032A8000B43136503E097F82F3187F82E31D7F8D1
:1032B8001C31D3E9002302F40053C7F8F03000238F
:1032C800C7F8F430D7E93C120B46134356D0D7F869
:1032D8001C319B6EB3F5A02F33D0B3F5A02F2CD89B
:1032E800B3F5802F2FD0B3F5802F26D8B3F5403F04
:1032F8002BD0B3F5403F20D8B3F5003F12D0B3F53B
:10330800003F1AD8002B22D0B3F5803F15D1D7F84B
:103318001C3108330121184602F020F9034687F8CA
:103328002F3115E0D7F81C3128330121184602F057
:10333800C7F9034687F82F310AE0012387F82F31B0
:1033480006E000BF04E000BF02E000BF00E000BFED
:1033580097F82F31002B0DD1054B1B6D23F4E0217D
:10336800D7F81C319B6E024A0B43136506E000BF79
:103378000044025897F82F3187F82E31D7F81C31BE
:10338800D3E9002302F48043C7F8E8300023C7F8E4
:10339800EC30D7E93A120B46134355D0D7F81C3115
:1033A800D3F8B430B3F1A04F33D0B3F1A04F2CD839
:1033B800B3F1804F2FD0B3F1804F26D8B3F1405FDF
:1033C8002BD0B3F1405F20D8B3F1005F12D0B3F136
:1033D800005F1AD8002B22D0B3F1805F15D1D7F83F
:1033E8001C3108330121184602F0B8F8034687F863
:1033F8002F3115E0D7F81C3128330121184602F087
:103408005FF9034687F82F310AE0012387F82F3147
:1034180006E000BF04E000BF02E000BF00E000BF1C
:1034280097F82F31002B0BD1B74B9B6D23F0E04160
:10343800D7F81C31D3F8B430B34A0B43936503E093
:1034480097F82F3187F82E31D7F81C31D3E90023AC
:1034580002F08063C7F8E0300023C7F8E430D7E90A
:1034680038120B4613432AD0D7F81C311B6D002B9A
:1034780011D0B3F5807F0AD1D7F81C310833012168
:10348800184602F06BF8034687F82F3104E0012351
:1034980087F82F3100E000BF97F82F31002B0AD1B1
:1034A800994BDB6C23F48071D7F81C311B6D964A5D
:1034B8000B43D36403E097F82F3187F82E31D7F800
:1034C8001C31D3E9002302F40043C7F8D8300023A5
:1034D800C7F8DC30D7E936120B46134337D0D7F894
:1034E8001C315B6FB3F1005F0ED0B3F1005F16D8EB
:1034F800002B18D0B3F1805F11D1834BDB6A824A6D
:1035080043F40033D3620FE0D7F81C3108330121AC
:10351800184602F023F8034687F82F3104E0012308
:1035280087F82F3100E000BF97F82F31002B0AD120
:10353800754B1B6D23F04051D7F81C315B6F724AF5
:103548000B43136503E097F82F3187F82E31D7F82E
:103558001C31D3E9002302F08073C7F8D030002370
:10356800C7F8D430D7E934120B4613433AD0D7F80A
:103578001C319B6C032B1DD801A252F823F000BF0D
:10358800C535100899351008A7351008C535100835
:103598005D4BDB6A5C4A43F40033D3620FE0D7F833
:1035A8001C3108330221184601F0D8FF034687F87A
:1035B8002F3104E0012387F82F3100E000BF97F88E
:1035C8002F31002B0AD1504BDB6C23F00301D7F8C5
:1035D8001C319B6C4C4A0B43D36403E097F82F31A2
:1035E80087F82E31D7F81C31D3E9002302F4800381
:1035F800C7F8C8300023C7F8CC30D7E932120B46D9
:10360800134300F0A080414B1B68404A43F4807389
:103618001360FDF73BFFC7F828010BE0FDF736FF05
:103628000246D7F82831D31A642B03D9032387F825
:103638002F3105E0354B1B6803F48073002BEDD068
:1036480097F82F31002B7AD12F4B1A6FD7F81C31EE
:10365800D3F8B830534003F44073002B15D02A4BED
:103668001B6F23F44073C7F82431274B1B6F264A7E
:1036780043F480331367244B1B6F234A23F48033AE
:103688001367214AD7F824311367D7F81C31D3F8C8
:10369800B830B3F5807F18D1FDF7F8FEC7F82801D8
:1036A8000DE0FDF7F3FE0246D7F82831D21A41F2B1
:1036B80088339A4203D9032387F82F3105E0124B48
:1036C8001B6F03F00203002BEBD097F82F31002B70
:1036D80030D1D7F81C31D3F8B83003F44073B3F5C0
:1036E800407F15D1084B1B6923F47C51D7F81C3156
:1036F800D3F8B8301B0923F07F4323F03003024A84
:103708000B4313610AE000BF004402580048025806
:10371800D44B1B69D34A23F47C531361D14B196FE3
:10372800D7F81C31D3F8B830C3F30B03CD4A0B4399
:10373800136708E097F82F3187F82E3103E097F8E0
:103748002F3187F82E31D7F81C31D3E9002302F046
:103758000103C7F8C0300023C7F8C430D7E93012D6
:103768000B46134300F08B80D7F81C31D3F8803018
:10377800282B6BD801A252F823F000BF5D3810083F
:10378800553810085538100855381008553810089D
:1037980055381008553810085538100829381008B9
:1037A800553810085538100855381008553810087D
:1037B8005538100855381008553810083F38100883
:1037C800553810085538100855381008553810085D
:1037D8005538100855381008553810085D38100845
:1037E800553810085538100855381008553810083D
:1037F8005538100855381008553810085D38100825
:10380800553810085538100855381008553810081C
:103818005538100855381008553810085D38100804
:10382800D7F81C3108330121184601F097FE0346EA
:1038380087F82F310FE0D7F81C31283301211846BB
:1038480001F03EFF034687F82F3104E0012387F893
:103858002F3100E000BF97F82F31002B0BD1814B9F
:103868005B6D23F03801D7F81C31D3F880307D4ADE
:103878000B43536503E097F82F3187F82E31D7F8BB
:103888001C31D3E9002302F00203C7F8B830002343
:10389800C7F8BC30D7E92E120B46134342D0D7F8ED
:1038A8001C31DB6F052B25D801A252F823F000BF8D
:1038B80005391008D1381008E738100805391008FC
:1038C8000539100805391008D7F81C3108330121CB
:1038D800184601F043FE034687F82F310FE0D7F86A
:1038E8001C3128330121184601F0EAFE034687F807
:1038F8002F3104E0012387F82F3100E000BF97F84B
:103908002F31002B0AD1574B5B6D23F00701D7F8F5
:103918001C31DB6F534A0B43536503E097F82F3193
:1039280087F82E31D7F81C31D3E9002302F00403BD
:10393800C7F8B0300023C7F8B430D7E92C120B46CB
:10394800134344D0D7F81C31D3F89830052B25D829
:1039580001A252F823F000BFAD39100879391008D8
:103968008F391008AD391008AD391008AD39100875
:10397800D7F81C3108330121184601F0EFFD034642
:1039880087F82F310FE0D7F81C312833012118466A
:1039980001F096FE034687F82F3104E0012387F8EB
:1039A8002F3100E000BF97F82F31002B0BD12D4BA2
:1039B8009B6D23F00701D7F81C31D3F89830294ABA
:1039C8000B43936503E097F82F3187F82E31D7F82A
:1039D8001C31D3E9002302F02003C7F8A8300023E4
:1039E800C7F8AC30D7E92A120B46134357D0D7F89B
:1039F8001C31D3F89430B3F1A04F35D0B3F1A04FB8
:103A08002CD8B3F1804F31D0B3F1804F26D8B3F121
:103A1800405F2DD0B3F1405F20D8B3F1005F12D0E2
:103A2800B3F1005F1AD8002B24D0B3F1805F15D111
:103A3800D7F81C3108330021184601F08FFD0346E2
:103A480087F82F3117E0D7F81C31283302211846A0
:103A580001F036FE034687F82F310CE0012387F882
:103A68002F3108E00044025800BF04E000BF02E024
:103A780000BF00E000BF97F82F31002B0BD1C24BDD
:103A88005B6D23F0E041D7F81C31D3F89430BE4A7F
:103A98000B43536503E097F82F3187F82E31D7F899
:103AA8001C31D3E9002302F04003C7F8A0300023FB
:103AB800C7F8A430D7E928120B46134355D0D7F8D6
:103AC8001C31D3F8A030B3F5A05F33D0B3F5A05FB5
:103AD8002CD8B3F5805F2FD0B3F5805F26D8B3F527
:103AE800406F2BD0B3F5406F20D8B3F5006F12D0DC
:103AF800B3F5006F1AD8002B22D0B3F5806F15D11B
:103B0800D7F81C3108330021184601F027FD034679
:103B180087F82F3115E0D7F81C31283302211846D1
:103B280001F0CEFD034687F82F310AE0012387F81C
:103B38002F3106E000BF04E000BF02E000BF00E054
:103B480000BF97F82F31002B0BD18F4B9B6D23F4BF
:103B5800E051D7F81C31D3F8A0308B4A0B4393655A
:103B680003E097F82F3187F82E31D7F81C31D3E9C5
:103B7800002302F08003C7F898300023C7F89C3070
:103B8800D7E926120B46134355D0D7F81C31D3F882
:103B9800A430B3F5204F33D0B3F5204F2CD8B3F56C
:103BA800004F2FD0B3F5004F26D8B3F5C04F2BD018
:103BB800B3F5C04F20D8B3F5804F12D0B3F5804F7E
:103BC8001AD8002B22D0B3F5005F15D1D7F81C31D5
:103BD80008330021184601F0C1FC034687F82F314D
:103BE80015E0D7F81C3128330221184601F068FD8A
:103BF800034687F82F310AE0012387F82F3106E0C2
:103C080000BF04E000BF02E000BF00E000BF97F87B
:103C18002F31002B0BD15C4B9B6D23F46041D7F8FF
:103C28001C31D3F8A430584A0B43936503E097F846
:103C38002F3187F82E31D7F81C31D3E9002302F051
:103C48000803C7F890300023C7F89430D7E9241246
:103C58000B4613431ED0D7F81C31D3F88830B3F580
:103C6800805F0CD1D7F81C3128330221184601F0A7
:103C780027FD0346002B02D0012387F82E31424B43
:103C88005B6D23F44051D7F81C31D3F888303E4A95
:103C98000B435365D7F81C31D3E9002302F0100316
:103CA800C7F888300023C7F88C30D7E922120B46B2
:103CB80013431ED0D7F81C31D3F89C30B3F5807F5E
:103CC8000CD1D7F81C3128330221184601F0F8FC32
:103CD8000346002B02D0012387F82E312A4B9B6D17
:103CE80023F44071D7F81C31D3F89C30264A0B4393
:103CF8009365D7F81C31D3E9002302F40023C7F8F1
:103D080080300023C7F88430D7E920120B461343CC
:103D180040D0D7F81C31D3F8A830B3F5003F22D0F3
:103D2800B3F5003F1BD8002B03D0B3F5803F0BD071
:103D380015E0D7F81C3108330021184601F00EFCB5
:103D4800034687F82F310FE0D7F81C3128330221BA
:103D5800184601F0B5FC034687F82F3104E001232B
:103D680087F82F3100E000BF97F82F31002B0DD1D5
:103D7800054B9B6D23F44031D7F81C31D3F8A8309C
:103D8800014A0B43936505E00044025897F82F3128
:103D980087F82E31D7F81C31D3E9002302F48023A9
:103DA800BB670023FB67D7E91E120B4613433BD0C2
:103DB800D7F81C31D3F88C30B3F5401F1FD0B3F5BA
:103DC800401F18D8B3F5801F03D0B3F5001F07D0E4
:103DD80011E0644BDB6A634A43F40033D3620FE0BB
:103DE800D7F81C3128330121184601F069FC034635
:103DF80087F82F3104E0012387F82F3100E000BF56
:103E080097F82F31002B0BD1564B5B6D23F44011E3
:103E1800D7F81C31D3F88C30524A0B43536503E072
:103E280097F82F3187F82E31D7F81C31D3E90023C2
:103E380002F480333B6700237B67D7E91C120B46EB
:103E4800134331D0D7F81C315B6D002B03D0B3F589
:103E5800803F07D011E0434BDB6A424A43F400330A
:103E6800D3620EE0D7F81C3108330221184601F05E
:103E780075FB034687F82F3103E0012387F82F31BC
:103E880000BF97F82F31002B0AD1364BDB6C23F497
:103E98008031D7F81C315B6D324A0B43D36403E0A1
:103EA80097F82F3187F82E31D7F81C31D3E9002342
:103EB80002F00053BB660023FB66D7E91A120B46D3
:103EC80013430CD0D7F81C3128330221184601F0CF
:103ED800F7FB0346002B02D0012387F82E31D7F8D1
:103EE8001C31D3E9002302F400333B6600237B66D0
:103EF800D7E918120B4613433AD0D7F81C31D3F838
:103F08008430B3F5407F18D0B3F5407F11D8B3F5AE
:103F1800007F14D0B3F5007F0BD8002B11D0B3F578
:103F2800807F06D10F4BDB6A0E4A43F40033D3621D
:103F380008E0012387F82F3104E000BF02E000BF4A
:103F480000E000BF97F82F31002B0DD1054B5B6DBA
:103F580023F44071D7F81C31D3F88430014A0B435D
:103F6800536505E00044025897F82F3187F82E3141
:103F7800D7F81C31D3E9002302F48013BB65002372
:103F8800FB65D7E916120B46134309D0AA4B1B6DE4
:103F980023F00041D7F81C319B6FA74A0B431365E8
:103FA800D7F81C31D3E9002302F080533B65002386
:103FB8007B65D7E914120B4613430AD09E4B1B6945
:103FC80023F48041D7F81C31D3F8BC309A4A0B430C
:103FD8001361D7F81C31D3E9002302F40013BB6442
:103FE8000023FB64D7E912120B46134309D0924B06
:103FF8001B6D23F08071D7F81C311B6F8E4A0B4361
:104008001365D7F81C31D3E9002302F080433B64E1
:1040180000237B64D7E910120B4613430ED0864B5E
:104028001B69854A23F400431361834B1969D7F848
:104038001C31D3F8C030804A0B431361D7F81C31C8
:10404800D3E9002302F00043BB630023FB63D7E9F5
:104058000E120B46134309D0774BDB6C23F040510B
:10406800D7F81C319B6D744A0B43D364D7F81C31C5
:10407800D3E9002302F400033B6300237B63D7E901
:104088000C120B4613430AD06B4B5B6D23F44001B3
:10409800D7F81C31D3F89030674A0B435365D7F8EB
:1040A8001C31D3E900230021B96203F00103FB624C
:1040B800D7E90A120B46134311D0D7F81C3108333D
:1040C8000021184601F04AFA034687F82F3197F87D
:1040D8002F31002B03D097F82F3187F82E31D7F8DE
:1040E8001C31D3E900230021396203F002037B620B
:1040F800D7E908120B46134311D0D7F81C310833FF
:104108000121184601F02AFA034687F82F3197F85B
:104118002F31002B03D097F82F3187F82E31D7F89D
:104128001C31D3E900230021B96103F00403FB61CA
:10413800D7E906120B46134311D0D7F81C310833C0
:104148000221184601F00AFA034687F82F3197F83A
:104158002F31002B03D097F82F3187F82E31D7F85D
:104168001C31D3E900230021396103F008037B6186
:10417800D7E904120B46134311D0D7F81C31283362
:104188000021184601F09CFA034687F82F3197F86A
:104198002F31002B03D097F82F3187F82E31D7F81D
:1041A8001C31D3E900230021B96003F01003FB6040
:1041B800D7E902120B46134311D0D7F81C31283324
:1041C8000121184601F07CFA034687F82F3197F849
:1041D8002F31002B03D097F82F3187F82E31D7F8DD
:1041E8001C31D3E900230021396003F020037B60F0
:1041F800D7E900120B46134311D0D7F81C312833E6
:104208000221184601F05CFA034687F82F3197F827
:104218002F31002B03D097F82F3187F82E3197F8DC
:104228002E31002B01D1002300E00123184607F5A9
:104238009877BD46BDE8B08F0044025880B590B06D
:1042480000AFC7E90001D7E90023A2F580710B434D
:1042580040F094809E4B1B6D03F007033B633B6B60
:10426800042B00F2878001A252F823F0894210083B
:10427800B1421008D94210087543100801431008CC
:10428800934B1B6803F00073B3F1007F08D107F16B
:104298002403184601F010F8BB6AFB6300F045BD23
:1042A8000023FB6300F041BD894B1B6803F00063EA
:1042B800B3F1006F08D107F11803184600F054FD58
:1042C800BB69FB6300F031BD0023FB6300F02DBD2B
:1042D8007F4B1B6803F00053B3F1005F08D107F16F
:1042E8000C03184600F094FEFB68FB6300F01DBD4C
:1042F8000023FB6300F019BD754BDB6C03F04053E2
:104308007B63734B1B6803F00403042B0CD17B6B9A
:10431800002B09D16E4B1B68DB0803F003036D4AC1
:1043280022FA03F3FB631FE0694B1B6803F48073F5
:10433800B3F5807F06D17B6BB3F1805F02D1664B0A
:10434800FB6311E0624B1B6803F40033B3F5003FD5
:1043580006D17B6BB3F1005F02D1604BFB6303E0D6
:104368000023FB6300F0E1BC00F0DFBC5C4BFB63A7
:1043780000F0DBBC0023FB6300F0D7BCD7E90023C7
:10438800A2F500710B4340F0AD80514B1B6D03F457
:10439800E0733B633B6BB3F5807F56D03B6BB3F563
:1043A800807F00F290803B6BC02B00F088803B6BD5
:1043B800C02B00F288803B6B802B32D03B6B802B6C
:1043C80000F281803B6B002B03D03B6B402B14D059
:1043D80079E03F4B1B6803F00073B3F1007F08D10D
:1043E80007F12403184600F067FFBB6AFB6300F07F
:1043F8009CBC0023FB6300F098BC354B1B6803F0A2
:104408000063B3F1006F08D107F11803184600F0F4
:10441800ABFCBB69FB6300F088BC0023FB6300F0C6
:1044280084BC2B4B1B6803F00053B3F1005F08D129
:1044380007F10C03184600F0EBFDFB68FB6300F086
:1044480074BC0023FB6300F070BC214BDB6C03F0F1
:1044580040537B631E4B1B6803F00403042B0CD1F1
:104468007B6B002B09D11A4B1B68DB0803F0030395
:10447800184A22FA03F3FB631FE0154B1B6803F489
:104488008073B3F5807F06D17B6BB3F1805F02D177
:10449800114BFB6311E00E4B1B6803F40033B3F5BB
:1044A800003F06D17B6BB3F1005F02D10B4BFB637E
:1044B80003E00023FB6300F038BC00F036BC084B77
:1044C800FB6300F032BC0023FB6300F02EBC00BF8E
:1044D800004402580090D00300093D0040787D0157
:1044E8000080BB00D7E90023A2F580610B4340F0B0
:1044F8009C809E4B9B6D03F460033B633B6BB3F561
:10450800000F54D03B6BB3F5000F00F28B803B6B70
:10451800B3F5C00F00F083803B6BB3F5C00F00F21A
:1045280081803B6BB3F5800F2FD03B6BB3F5800FC9
:1045380078D83B6B002B04D03B6BB3F5001F12D02F
:1045480070E08A4B1B6803F00073B3F1007F07D15A
:1045580007F12403184600F0AFFEBB6AFB63E4E3EF
:104568000023FB63E1E3814B1B6803F00063B3F1B5
:10457800006F07D107F11803184600F0F5FBBB6977
:10458800FB63D2E30023FB63CFE3784B1B6803F0A4
:104598000053B3F1005F07D107F10C03184600F090
:1045A80037FDFB68FB63C0E30023FB63BDE36F4B90
:1045B800DB6C03F040537B636C4B1B6803F0040314
:1045C800042B0CD17B6B002B09D1684B1B68DB08D3
:1045D80003F00303664A22FA03F3FB631EE0634B0E
:1045E8001B6803F48073B3F5807F06D17B6BB3F14E
:1045F800805F02D15F4BFB6310E05C4B1B6803F4E8
:104608000033B3F5003F06D17B6BB3F1005F02D1F5
:10461800594BFB6302E00023FB6386E385E3574BBA
:10462800FB6382E30023FB637FE3D7E90023A2F562
:1046380000610B4340F0A7804C4B9B6D03F0E06397
:104648003B633B6BB3F1806F55D03B6BB3F1806F2D
:1046580000F296803B6BB3F1407F00F084803B6BA7
:10466800B3F1407F00F28C803B6BB3F1007F30D018
:104678003B6BB3F1007F00F283803B6B002B04D0CF
:104688003B6BB3F1807F12D07AE0384B1B6803F0A4
:104698000073B3F1007F07D107F12403184600F037
:1046A8000BFEBB6AFB6340E30023FB633DE32F4B38
:1046B8001B6803F00063B3F1006F07D107F118031B
:1046C800184600F051FBBB69FB632EE30023FB6334
:1046D8002BE3264B1B6803F00053B3F1005F07D1AF
:1046E80007F10C03184600F093FCFB68FB631CE31E
:1046F8000023FB6319E31D4BDB6C03F040537B6322
:104708001A4B1B6803F00403042B0CD17B6B002BA2
:1047180009D1164B1B68DB0803F00303144A22FA7D
:1047280003F3FB631EE0114B1B6803F48073B3F5BE
:10473800807F06D17B6BB3F1805F02D10D4BFB63A9
:1047480010E00A4B1B6803F40033B3F5003F06D1B1
:104758007B6BB3F1005F02D1074BFB6302E00023E0
:10476800FB63E2E2E1E2054BFB63DEE20044025850
:104778000090D00300093D0040787D010080BB0017
:104788000023FB63D1E2D7E90023A2F580510B4354
:1047980040F09C80934B1B6D03F4E043BB63BB6B01
:1047A800B3F5804F54D0BB6BB3F5804F00F28B80CC
:1047B800BB6BB3F5405F00F08380BB6BB3F5405F24
:1047C80000F28180BB6BB3F5005F2FD0BB6BB3F5F4
:1047D800005F78D8BB6B002B04D0BB6BB3F5805F50
:1047E80012D070E07F4B1B6803F00073B3F1007FB9
:1047F80007D107F12403184600F05EFDBB6AFB638E
:1048080093E20023FB6390E2764B1B6803F000639E
:10481800B3F1006F07D107F11803184600F0A4FAA6
:10482800BB69FB6381E20023FB637EE26D4B1B687F
:1048380003F00053B3F1005F07D107F10C031846EA
:1048480000F0E6FBFB68FB636FE20023FB636CE2AE
:10485800644BDB6C03F040537B63624B1B6803F0D3
:104868000403042B0CD17B6B002B09D15D4B1B6817
:10487800DB0803F003035C4A22FA03F3FB631EE040
:10488800584B1B6803F48073B3F5807F06D17B6BAC
:10489800B3F1805F02D1554BFB6310E0514B1B68AD
:1048A80003F40033B3F5003F06D17B6BB3F1005F2F
:1048B80002D14F4BFB6302E00023FB6335E234E295
:1048C8004C4BFB6331E20023FB632EE2D7E9002364
:1048D800A2F500510B4340F08F80424B1B6D03F44F
:1048E800E023BB63BB6BB3F5A02F6BD0BB6BB3F5F9
:1048F800A02F74D8BB6BB3F5802F56D0BB6BB3F524
:10490800802F6CD8BB6BB3F5403F3BD0BB6BB3F586
:10491800403F64D8BB6BB3F5003F21D0BB6BB3F508
:10492800003F5CD8BB6B002B04D0BB6BB3F5803F5A
:1049380004D054E0FEF722FAF863F6E1294B1B682D
:1049480003F00063B3F1006F07D107F118031846AD
:1049580000F00AFAFB69FB63E7E10023FB63E4E18B
:10496800204B1B6803F00053B3F1005F07D107F138
:104978000C03184600F04CFB3B69FB63D5E10023B0
:10498800FB63D2E1174B1B6803F00403042B09D126
:10499800144B1B68DB0803F00303134A22FA03F3E2
:1049A800FB63C2E10023FB63BFE10E4B1B6803F40A
:1049B8008073B3F5807F02D10C4BFB63B5E1002314
:1049C800FB63B2E1074B1B6803F40033B3F5003F08
:1049D80002D1074BFB63A8E10023FB63A5E1002399
:1049E800FB63A2E1004402580090D00300093D0097
:1049F80040787D010080BB00D7E90023A2F50021A3
:104A08000B4373D19C4B9B6D03F44033BB63BB6B6F
:104A1800B3F5003F2FD0BB6BB3F5003F63D8BB6B3A
:104A2800002B04D0BB6BB3F5803F12D05BE0924BF8
:104A38001B6803F00063B3F1006F07D107F1180397
:104A4800184600F091F9BB69FB636EE10023FB6334
:104A58006BE1894B1B6803F00053B3F1005F07D18A
:104A680007F10C03184600F0D3FA7B69FB635CE19D
:104A78000023FB6359E1804BDB6C03F040537B63FD
:104A88007D4B1B6803F00403042B0CD17B6B002BBC
:104A980009D1794B1B68DB0803F00303774A22FA34
:104AA80003F3FB631EE0744B1B6803F48073B3F5D8
:104AB800807F06D17B6BB3F1805F02D1704BFB63C3
:104AC80010E06D4B1B6803F40033B3F5003F06D1CB
:104AD8007B6BB3F1005F02D16A4BFB6302E00023FA
:104AE800FB6322E121E10023FB631EE1D7E90023F8
:104AF800A2F580310B4333D15F4BDB6C03F4803379
:104B0800BB63BB6B002B04D0BB6BB3F5803F12D0EB
:104B180023E0594B1B6803F00073B3F1007F07D102
:104B280007F12403184600F0C7FBBB6AFB63FCE0EF
:104B38000023FB63F9E0504B1B6803F00063B3F1FB
:104B4800006F07D107F11803184600F00DF93B6A0A
:104B5800FB63EAE00023FB63E7E00023FB63E4E098
:104B6800D7E90023A2F580410B4340F08D80424BEA
:104B78009B6D03F0E043BB63BB6BB3F1A04F6BD0FD
:104B8800BB6BB3F1A04F74D8BB6BB3F1804F56D059
:104B9800BB6BB3F1804F6CD8BB6BB3F1405F3BD0BC
:104BA800BB6BB3F1405F64D8BB6BB3F1005F21D03E
:104BB800BB6BB3F1005F5CD8BB6B002B04D0BB6B45
:104BC800B3F1805F04D054E000F0B8F8F863ACE0CB
:104BD800294B1B6803F00063B3F1006F07D107F19D
:104BE8001803184600F0C0F8FB69FB639DE000233A
:104BF800FB639AE0204B1B6803F00053B3F1005F9E
:104C080007D107F10C03184600F002FA3B69FB6371
:104C18008BE00023FB6388E0174B1B6803F0040359
:104C2800042B09D1144B1B68DB0803F00303134A58
:104C380022FA03F3FB6378E00023FB6375E00E4B75
:104C48001B6803F48073B3F5807F02D10C4BFB63C0
:104C58006BE00023FB6368E0074B1B6803F4003339
:104C6800B3F5003F02D1074BFB635EE00023FB6313
:104C78005BE00023FB6358E0004402580090D00337
:104C880000093D0040787D01D7E90023A2F50041E5
:104C98000B4348D1274B1B6D03F04053BB63BB6BE1
:104CA800B3F1005F2AD0BB6BB3F1005F38D8BB6BA0
:104CB800002B04D0BB6BB3F1805F0DD030E01D4BEF
:104CC8001B6803F40033B3F5003F02D11A4BFB63B2
:104CD8002BE00023FB6328E0164B1B6803F00073EE
:104CE800B3F1007F07D107F12403184600F0E4FA76
:104CF800BB6AFB6319E00023FB6316E00D4B1B68DE
:104D080003F00063B3F1006F07D107F118031846E9
:104D180000F02AF8FB69FB6307E00023FB6304E06B
:104D28000023FB6301E00023FB63FB6B184640375D
:104D3800BD4680BD0044025840787D0180B500AF73
:104D4800FDF7EAFF0246064B1B6A1B0903F007033F
:104D58000449CB5C03F01F0322FA03F3184680BD15
:104D680000440258486B100880B489B000AF7860DE
:104D7800A14B9B6A03F00303BB619F4B9B6A1B0B10
:104D880003F03F037B619C4BDB6A1B0903F00103C3
:104D98003B61994BDB6BDB08C3F30C033A6902FBFD
:104DA80003F307EE903AF8EE677AC7ED037A7B696A
:104DB800002B00F01181BB69022B00F08380BB69D6
:104DC800022B00F2A180BB69002B03D0BB69012B29
:104DD80056D099E0884B1B6803F02003002B2DD098
:104DE800854B1B68DB0803F00303844A22FA03F3AC
:104DF800BB60BB6807EE903AF8EE676A7B6907EE1E
:104E0800903AF8EE677A86EEA77A7B4B9B6BC3F3F2
:104E1800080307EE903AF8EE676A97ED036ADFED4C
:104E2800785AC6EE257A76EEA77AF7EE006A77EE1C
:104E3800A67A67EE277AC7ED077A87E07B6907EEDF
:104E4800903AF8EE677ADFED6F6A86EEA77A6A4BDA
:104E58009B6BC3F3080307EE903AF8EE676A97ED89
:104E6800036ADFED675AC6EE257A76EEA77AF7EE83
:104E7800006A77EEA67A67EE277AC7ED077A65E0CB
:104E88007B6907EE903AF8EE677ADFED5F6A86EEA7
:104E9800A77A594B9B6BC3F3080307EE903AF8EED9
:104EA800676A97ED036ADFED565AC6EE257A76EE05
:104EB800A77AF7EE006A77EEA67A67EE277AC7ED4B
:104EC800077A43E07B6907EE903AF8EE677ADFED00
:104ED8004F6A86EEA77A484B9B6BC3F3080307EE2D
:104EE800903AF8EE676A97ED036ADFED455AC6EE29
:104EF800257A76EEA77AF7EE006A77EEA67A67EE5D
:104F0800277AC7ED077A21E07B6907EE903AF8EE39
:104F1800677ADFED3D6A86EEA77A374B9B6BC3F362
:104F2800080307EE903AF8EE676A97ED036ADFED3B
:104F3800345AC6EE257A76EEA77AF7EE006A77EE4F
:104F4800A67A67EE277AC7ED077A00BF2A4B9B6BD4
:104F58005B0A03F07F0307EE903AF8EE677AB7EE44
:104F6800007A37EE877AD7ED076AC6EE877AFCEEC5
:104F7800E77A17EE902A7B681A601F4B9B6B1B0C15
:104F880003F07F0307EE903AF8EE677AB7EE007AFF
:104F980037EE877AD7ED076AC6EE877AFCEEE77AAE
:104FA80017EE902A7B685A60134B9B6B1B0E03F01D
:104FB8007F0307EE903AF8EE677AB7EE007A37EE9D
:104FC800877AD7ED076AC6EE877AFCEEE77A17EE9E
:104FD800902A7B689A6008E07B6800221A607B68E8
:104FE80000225A607B6800229A6000BF2437BD46C1
:104FF8005DF8047B704700BF004402580090D0035E
:10500800000000460024744C0024744A20BCBE4BA7
:1050180080B489B000AF7860A14B9B6A03F00303AA
:10502800BB619F4B9B6A1B0D03F03F037B619C4B4D
:10503800DB6A1B0A03F001033B61994B5B6CDB08DD
:10504800C3F30C033A6902FB03F307EE903AF8EE58
:10505800677AC7ED037A7B69002B00F01181BB6981
:10506800022B00F08380BB69022B00F2A180BB6990
:10507800002B03D0BB69012B56D099E0884B1B68E5
:1050880003F02003002B2DD0854B1B68DB0803F0B1
:105098000303844A22FA03F3BB60BB6807EE903A25
:1050A800F8EE676A7B6907EE903AF8EE677A86EE63
:1050B800A77A7B4B1B6CC3F3080307EE903AF8EE14
:1050C800676A97ED036ADFED785AC6EE257A76EEC1
:1050D800A77AF7EE006A77EEA67A67EE277AC7ED29
:1050E800077A87E07B6907EE903AF8EE677ADFED9A
:1050F8006F6A86EEA77A6A4B1B6CC3F3080307EE48
:10510800903AF8EE676A97ED036ADFED675AC6EEE4
:10511800257A76EEA77AF7EE006A77EEA67A67EE3A
:10512800277AC7ED077A65E07B6907EE903AF8EED3
:10513800677ADFED5F6A86EEA77A594B1B6CC3F37B
:10514800080307EE903AF8EE676A97ED036ADFED19
:10515800565AC6EE257A76EEA77AF7EE006A77EE0B
:10516800A67A67EE277AC7ED077A43E07B6907EEF0
:10517800903AF8EE677ADFED4F6A86EEA77A484BE9
:105188001B6CC3F3080307EE903AF8EE676A97EDD5
:10519800036ADFED455AC6EE257A76EEA77AF7EE72
:1051A800006A77EEA67A67EE277AC7ED077A21E0DC
:1051B8007B6907EE903AF8EE677ADFED3D6A86EE96
:1051C800A77A374B1B6CC3F3080307EE903AF8EE47
:1051D800676A97ED036ADFED345AC6EE257A76EEF4
:1051E800A77AF7EE006A77EEA67A67EE277AC7ED18
:1051F800077A00BF2A4B1B6C5B0A03F07F0307EE9C
:10520800903AF8EE677AB7EE007A37EE877AD7EDFC
:10521800076AC6EE877AFCEEE77A17EE902A7B6873
:105228001A601F4B1B6C1B0C03F07F0307EE903AB0
:10523800F8EE677AB7EE007A37EE877AD7ED076A25
:10524800C6EE877AFCEEE77A17EE902A7B685A60FA
:10525800134B1B6C1B0E03F07F0307EE903AF8EE1E
:10526800677AB7EE007A37EE877AD7ED076AC6EE27
:10527800877AFCEEE77A17EE902A7B689A6008E056
:105288007B6800221A607B6800225A607B680022D3
:105298009A6000BF2437BD465DF8047B704700BFA5
:1052A800004402580090D003000000460024744CCB
:1052B8000024744A20BCBE4B80B489B000AF78602B
:1052C800A04B9B6A03F00303BB619E4B9B6A1B09BF
:1052D80003F03F037B619B4BDB6A03F001033B61F7
:1052E800984B5B6BDB08C3F30C033A6902FB03F3CF
:1052F80007EE903AF8EE677AC7ED037A7B69002BE0
:1053080000F01181BB69022B00F08380BB69022B7E
:1053180000F2A180BB69002B03D0BB69012B56D0DA
:1053280099E0884B1B6803F02003002B2DD0854B98
:105338001B68DB0803F00303834A22FA03F3BB600C
:10534800BB6807EE903AF8EE676A7B6907EE903A19
:10535800F8EE677A86EEA77A7A4B1B6BC3F30803DD
:1053680007EE903AF8EE676A97ED036ADFED775A31
:10537800C6EE257A76EEA77AF7EE006A77EEA67A79
:1053880067EE277AC7ED077A87E07B6907EE903AE0
:10539800F8EE677ADFED6E6A86EEA77A694B1B6BCB
:1053A800C3F3080307EE903AF8EE676A97ED036ACD
:1053B800DFED665AC6EE257A76EEA77AF7EE006A32
:1053C80077EEA67A67EE277AC7ED077A65E07B69FC
:1053D80007EE903AF8EE677ADFED5E6A86EEA77A16
:1053E800584B1B6BC3F3080307EE903AF8EE676A55
:1053F80097ED036ADFED555AC6EE257A76EEA77A61
:10540800F7EE006A77EEA67A67EE277AC7ED077A95
:1054180043E07B6907EE903AF8EE677ADFED4E6A73
:1054280086EEA77A474B1B6BC3F3080307EE903A47
:10543800F8EE676A97ED036ADFED445AC6EE257AFF
:1054480076EEA77AF7EE006A77EEA67A67EE277A05
:10545800C7ED077A21E07B6907EE903AF8EE677AA4
:10546800DFED3B6A86EEA77A364B1B6BC3F3080366
:1054780007EE903AF8EE676A97ED036ADFED335A64
:10548800C6EE257A76EEA77AF7EE006A77EEA67A68
:1054980067EE277AC7ED077A00BF2A4B1B6B5B0ABA
:1054A80003F07F0307EE903AF8EE677AB7EE007ADA
:1054B80037EE877AD7ED076AC6EE877AFCEEE77A89
:1054C80017EE902A7B681A601E4B1B6B1B0C03F0AF
:1054D8007F0307EE903AF8EE677AB7EE007A37EE78
:1054E800877AD7ED076AC6EE877AFCEEE77A17EE79
:1054F800902A7B685A60134B1B6B1B0E03F07F03CB
:1055080007EE903AF8EE677AB7EE007A37EE877AC8
:10551800D7ED076AC6EE877AFCEEE77A17EE902A8F
:105528007B689A6008E07B6800221A607B6800222A
:105538005A607B6800229A6000BF2437BD465DF838
:10554800047B7047004402580090D00300000046D6
:105558000024744C0024744A20BCBE4B80B584B02F
:1055680000AF786039600023FB73544B9B6A03F0EB
:105578000303032B01D101239BE0504B1B684F4AC7
:1055880023F080631360FBF781FFB86008E0FBF746
:105598007DFF0246BB68D31A022B01D9032388E09A
:1055A800464B1B6803F00063002BF0D1434B9B6A0A
:1055B80023F47C327B681B681B03404913438B62CE
:1055C8007B685B68013BC3F308027B689B68013B0F
:1055D8005B029BB21A437B68DB68013B1B0403F444
:1055E800FE031A437B681B69013B1B0603F0FE435D
:1055F800324913438B63314BDB6A23F0C0027B686B
:105608005B692E491343CB622C4BDB6A23F02002E3
:105618007B689B6929491343CB62284BDB6A274A7D
:1056280023F01003D362254BDB6B23F47F4323F075
:10563800F8037A68D269D20020491343CB631F4B21
:10564800DB6A1E4A43F01003D3623B68002B06D185
:105658001A4BDB6A194A43F40023D3620FE03B6814
:10566800012B06D1154BDB6A144A43F48013D3622D
:1056780005E0124BDB6A114A43F40013D3620F4B67
:105688001B680E4A43F080631360FBF7FFFEB860A7
:1056980008E0FBF7FBFE0246BB68D31A022B01D9D0
:1056A800032306E0054B1B6803F00063002BF0D0D2
:1056B800FB7B18461037BD4680BD00BF004402582A
:1056C80080B584B000AF786039600023FB73544B19
:1056D8009B6A03F00303032B01D101239BE0504B8A
:1056E8001B684F4A23F080531360FBF7CFFEB86066
:1056F80008E0FBF7CBFE0246BB68D31A022B01D9A0
:10570800032388E0464B1B6803F00053002BF0D1BD
:10571800434B9B6A23F07C727B681B681B054049DE
:1057280013438B627B685B68013BC3F308027B68A9
:105738009B68013B5B029BB21A437B68DB68013BB9
:105748001B0403F4FE031A437B681B69013B1B0619
:1057580003F0FE43324913430B64314BDB6A23F4F5
:1057680040627B685B692E491343CB622C4BDB6A32
:1057780023F400727B689B6929491343CB62284B49
:10578800DB6A274A23F48073D362254B5B6C23F4CE
:105798007F4323F0F8037A68D269D2002049134383
:1057A8004B641F4BDB6A1E4A43F48073D3623B6829
:1057B800002B06D11A4BDB6A194A43F48003D362E3
:1057C8000FE03B68012B06D1154BDB6A144A43F402
:1057D8000003D36205E0124BDB6A114A43F0807381
:1057E800D3620F4B1B680E4A43F080531360FBF7DC
:1057F8004DFEB86008E0FBF749FE0246BB68D31AC5
:10580800022B01D9032306E0054B1B6803F0005364
:10581800002BF0D0FB7B18461037BD4680BD00BF7B
:105828000044025880B584B000AF78600123FB7350
:105838007B68002B73D07B6893F82130DBB2002B98
:1058480006D17B68002283F820207868FBF78AF964
:105858007B68022283F821207B681B68DB6803F0E1
:105868001003102B52D07B681B68CA225A627B68CF
:105878001B6853225A62786800F07AF80346FB7373
:10588800FB7B002B26D17B681B689B687A681268B3
:1058980023F4E00323F0400393607B681B68996856
:1058A8007B685A687B681B691A437B689B691A4343
:1058B8007B681B680A439A607B689B6819047B684D
:1058C800DA687B681B680A431A61786800F084F814
:1058D8000346FB73FB7B002B13D17B681B68DA6CD8
:1058E8007B681B6822F00302DA647B681B68D96C4A
:1058F8007B68DA697B685B691A437B681B680A43C3
:10590800DA647B681B68FF225A6201E00023FB739C
:10591800FB7B002B03D17B68012283F82120FB7BD2
:1059280018461037BD4680BD80B584B000AF78609A
:105938007B681B680D4ADA60FBF7A8FDF86009E090
:10594800FBF7A4FD0246FB68D31AB3F57A7F01D9A9
:10595800032307E07B681B68DB6803F02003002B48
:10596800EED0002318461037BD4680BD5FFF030008
:1059780080B584B000AF78600023FB737B681B6838
:10598800DB6803F04003002B20D17B681B684FF0D5
:10599800FF32DA60FBF77AFDB8600DE0FBF776FDC1
:1059A8000246BB68D31AB3F57A7F05D90323FB7384
:1059B8007B68032283F821207B681B68DB6803F07F
:1059C8004003002B02D1FB7B032BE7D1FB7B18465E
:1059D8001037BD4680BD000080B584B000AF786048
:1059E8000023FB731A4BDB68194A23F04003D3608A
:1059F800174B9B6803F02003002B0CD17868FFF746
:105A080093FF0346002B1ED07B68032283F82120D6
:105A18000323FB7317E00E4B9B680D4A23F020030A
:105A280093607868FFF780FF0346002B05D07B68FA
:105A3800032283F821200323FB73054B9B68044A48
:105A480043F020039360FB7B18461037BD4680BDAA
:105A58000040005880B485B000AF786039607B683A
:105A680093F82030012B01D10223CCE07B6801227E
:105A780083F820207B68022283F821207B681B683A
:105A88001B6CFB603B681B68FA681343FB603B6850
:105A98009B68082B03D03B689B68022B06D13B68A8
:105AA8001B685B00FA681343FB6006E03B681B68F1
:105AB8005B00DB43FA681340FB603B68DB68002B44
:105AC8001ED03B681B6803F00103002B03D0FB6862
